{
  "contractName": "BountyPledge",
  "abi": [
    {
      "anonymous": false,
      "inputs": [
        {
          "indexed": true,
          "internalType": "address",
          "name": "asset",
          "type": "address"
        },
        {
          "indexed": true,
          "internalType": "uint8",
          "name": "Id",
          "type": "uint8"
        },
        {
          "indexed": true,
          "internalType": "uint8",
          "name": "model",
          "type": "uint8"
        },
        {
          "indexed": false,
          "internalType": "string",
          "name": "symbol",
          "type": "string"
        },
        {
          "indexed": false,
          "internalType": "bool",
          "name": "enabled",
          "type": "bool"
        }
      ],
      "name": "AssetActivity",
      "type": "event"
    },
    {
      "anonymous": false,
      "inputs": [
        {
          "indexed": true,
          "internalType": "address",
          "name": "from",
          "type": "address"
        },
        {
          "indexed": true,
          "internalType": "bytes32",
          "name": "keccak256CID",
          "type": "bytes32"
        },
        {
          "indexed": true,
          "internalType": "uint256",
          "name": "reward",
          "type": "uint256"
        },
        {
          "indexed": false,
          "internalType": "uint256",
          "name": "startTime",
          "type": "uint256"
        },
        {
          "indexed": false,
          "internalType": "uint256",
          "name": "endTime",
          "type": "uint256"
        },
        {
          "indexed": false,
          "internalType": "uint8",
          "name": "bountyType",
          "type": "uint8"
        },
        {
          "indexed": false,
          "internalType": "uint8",
          "name": "status",
          "type": "uint8"
        },
        {
          "indexed": false,
          "internalType": "string",
          "name": "rewardUnit",
          "type": "string"
        },
        {
          "indexed": false,
          "internalType": "string",
          "name": "cid",
          "type": "string"
        }
      ],
      "name": "BountyActivity",
      "type": "event"
    },
    {
      "anonymous": false,
      "inputs": [
        {
          "indexed": false,
          "internalType": "uint8",
          "name": "version",
          "type": "uint8"
        }
      ],
      "name": "Initialized",
      "type": "event"
    },
    {
      "anonymous": false,
      "inputs": [
        {
          "indexed": true,
          "internalType": "address",
          "name": "previousOwner",
          "type": "address"
        },
        {
          "indexed": true,
          "internalType": "address",
          "name": "newOwner",
          "type": "address"
        }
      ],
      "name": "OwnershipTransferred",
      "type": "event"
    },
    {
      "anonymous": false,
      "inputs": [
        {
          "indexed": true,
          "internalType": "address",
          "name": "from",
          "type": "address"
        },
        {
          "indexed": true,
          "internalType": "address",
          "name": "to",
          "type": "address"
        },
        {
          "indexed": true,
          "internalType": "bytes32",
          "name": "keccak256BountyCID",
          "type": "bytes32"
        },
        {
          "indexed": false,
          "internalType": "uint256",
          "name": "reward",
          "type": "uint256"
        },
        {
          "indexed": false,
          "internalType": "uint8",
          "name": "status",
          "type": "uint8"
        },
        {
          "indexed": false,
          "internalType": "string",
          "name": "rewardUnit",
          "type": "string"
        },
        {
          "indexed": false,
          "internalType": "string",
          "name": "bountyCid",
          "type": "string"
        },
        {
          "indexed": false,
          "internalType": "string",
          "name": "contributeCid",
          "type": "string"
        }
      ],
      "name": "TransferActivity",
      "type": "event"
    },
    {
      "anonymous": false,
      "inputs": [
        {
          "indexed": true,
          "internalType": "address",
          "name": "recipient",
          "type": "address"
        },
        {
          "indexed": true,
          "internalType": "bytes32",
          "name": "keccak256BountyCID",
          "type": "bytes32"
        },
        {
          "indexed": true,
          "internalType": "uint256",
          "name": "reward",
          "type": "uint256"
        },
        {
          "indexed": false,
          "internalType": "uint8",
          "name": "status",
          "type": "uint8"
        },
        {
          "indexed": false,
          "internalType": "string",
          "name": "rewardUnit",
          "type": "string"
        },
        {
          "indexed": false,
          "internalType": "string",
          "name": "bountyCid",
          "type": "string"
        }
      ],
      "name": "Withdraw",
      "type": "event"
    },
    {
      "inputs": [],
      "name": "CHILD_CHAIN_ID",
      "outputs": [
        {
          "internalType": "uint256",
          "name": "",
          "type": "uint256"
        }
      ],
      "stateMutability": "view",
      "type": "function",
      "constant": true
    },
    {
      "inputs": [],
      "name": "CHILD_CHAIN_ID_BYTES",
      "outputs": [
        {
          "internalType": "bytes",
          "name": "",
          "type": "bytes"
        }
      ],
      "stateMutability": "view",
      "type": "function",
      "constant": true
    },
    {
      "inputs": [],
      "name": "ERC712_VERSION",
      "outputs": [
        {
          "internalType": "string",
          "name": "",
          "type": "string"
        }
      ],
      "stateMutability": "view",
      "type": "function",
      "constant": true
    },
    {
      "inputs": [],
      "name": "ROOT_CHAIN_ID",
      "outputs": [
        {
          "internalType": "uint256",
          "name": "",
          "type": "uint256"
        }
      ],
      "stateMutability": "view",
      "type": "function",
      "constant": true
    },
    {
      "inputs": [],
      "name": "ROOT_CHAIN_ID_BYTES",
      "outputs": [
        {
          "internalType": "bytes",
          "name": "",
          "type": "bytes"
        }
      ],
      "stateMutability": "view",
      "type": "function",
      "constant": true
    },
    {
      "inputs": [],
      "name": "owner",
      "outputs": [
        {
          "internalType": "address",
          "name": "",
          "type": "address"
        }
      ],
      "stateMutability": "view",
      "type": "function",
      "constant": true
    },
    {
      "inputs": [],
      "name": "renounceOwnership",
      "outputs": [],
      "stateMutability": "nonpayable",
      "type": "function"
    },
    {
      "inputs": [
        {
          "internalType": "address",
          "name": "newOwner",
          "type": "address"
        }
      ],
      "name": "transferOwnership",
      "outputs": [],
      "stateMutability": "nonpayable",
      "type": "function"
    },
    {
      "stateMutability": "payable",
      "type": "receive",
      "payable": true
    },
    {
      "inputs": [
        {
          "internalType": "string",
          "name": "name_",
          "type": "string"
        },
        {
          "internalType": "string",
          "name": "symbol_",
          "type": "string"
        },
        {
          "internalType": "address",
          "name": "usdt_",
          "type": "address"
        },
        {
          "internalType": "string",
          "name": "coinUnit_",
          "type": "string"
        }
      ],
      "name": "initialize",
      "outputs": [],
      "stateMutability": "nonpayable",
      "type": "function"
    },
    {
      "inputs": [],
      "name": "name",
      "outputs": [
        {
          "internalType": "string",
          "name": "",
          "type": "string"
        }
      ],
      "stateMutability": "view",
      "type": "function",
      "constant": true
    },
    {
      "inputs": [
        {
          "internalType": "string",
          "name": "name_",
          "type": "string"
        }
      ],
      "name": "setName",
      "outputs": [],
      "stateMutability": "nonpayable",
      "type": "function"
    },
    {
      "inputs": [],
      "name": "symbol",
      "outputs": [
        {
          "internalType": "string",
          "name": "",
          "type": "string"
        }
      ],
      "stateMutability": "view",
      "type": "function",
      "constant": true
    },
    {
      "inputs": [
        {
          "internalType": "string",
          "name": "symbol_",
          "type": "string"
        }
      ],
      "name": "setSymbol",
      "outputs": [],
      "stateMutability": "nonpayable",
      "type": "function"
    },
    {
      "inputs": [],
      "name": "getWorldStatus",
      "outputs": [
        {
          "internalType": "bool",
          "name": "",
          "type": "bool"
        }
      ],
      "stateMutability": "view",
      "type": "function",
      "constant": true
    },
    {
      "inputs": [],
      "name": "enableWorldStatus",
      "outputs": [],
      "stateMutability": "nonpayable",
      "type": "function"
    },
    {
      "inputs": [],
      "name": "disableWorldStatus",
      "outputs": [],
      "stateMutability": "nonpayable",
      "type": "function"
    },
    {
      "inputs": [
        {
          "internalType": "string",
          "name": "cid",
          "type": "string"
        }
      ],
      "name": "getBounty",
      "outputs": [
        {
          "components": [
            {
              "internalType": "uint256",
              "name": "startTime",
              "type": "uint256"
            },
            {
              "internalType": "uint256",
              "name": "endTime",
              "type": "uint256"
            },
            {
              "internalType": "address",
              "name": "owner",
              "type": "address"
            },
            {
              "internalType": "uint8",
              "name": "bountyType",
              "type": "uint8"
            },
            {
              "internalType": "string",
              "name": "cid",
              "type": "string"
            },
            {
              "components": [
                {
                  "internalType": "uint256",
                  "name": "amount",
                  "type": "uint256"
                },
                {
                  "internalType": "uint256",
                  "name": "balance",
                  "type": "uint256"
                },
                {
                  "internalType": "string",
                  "name": "unit",
                  "type": "string"
                }
              ],
              "internalType": "struct BountyPledgeDataUpgradeable.Reward",
              "name": "reward",
              "type": "tuple"
            },
            {
              "internalType": "uint8",
              "name": "status",
              "type": "uint8"
            }
          ],
          "internalType": "struct BountyPledgeDataUpgradeable.Bounty",
          "name": "",
          "type": "tuple"
        }
      ],
      "stateMutability": "view",
      "type": "function",
      "constant": true
    },
    {
      "inputs": [
        {
          "internalType": "string",
          "name": "cidUnit",
          "type": "string"
        }
      ],
      "name": "getkeccak256",
      "outputs": [
        {
          "internalType": "bytes32",
          "name": "",
          "type": "bytes32"
        }
      ],
      "stateMutability": "pure",
      "type": "function",
      "constant": true
    },
    {
      "inputs": [
        {
          "internalType": "string",
          "name": "cid",
          "type": "string"
        }
      ],
      "name": "getWinners",
      "outputs": [
        {
          "internalType": "string[]",
          "name": "",
          "type": "string[]"
        }
      ],
      "stateMutability": "view",
      "type": "function",
      "constant": true
    },
    {
      "inputs": [
        {
          "internalType": "string",
          "name": "cid",
          "type": "string"
        },
        {
          "internalType": "uint256",
          "name": "deadLine",
          "type": "uint256"
        }
      ],
      "name": "setBountyExpired",
      "outputs": [],
      "stateMutability": "nonpayable",
      "type": "function"
    },
    {
      "inputs": [
        {
          "internalType": "address",
          "name": "asset_",
          "type": "address"
        },
        {
          "internalType": "string",
          "name": "symbol_",
          "type": "string"
        }
      ],
      "name": "addSupporteAsset",
      "outputs": [],
      "stateMutability": "nonpayable",
      "type": "function"
    },
    {
      "inputs": [
        {
          "internalType": "address",
          "name": "asset_",
          "type": "address"
        }
      ],
      "name": "disableAsset",
      "outputs": [],
      "stateMutability": "nonpayable",
      "type": "function"
    },
    {
      "inputs": [
        {
          "internalType": "address",
          "name": "asset_",
          "type": "address"
        }
      ],
      "name": "enableAsset",
      "outputs": [],
      "stateMutability": "nonpayable",
      "type": "function"
    },
    {
      "inputs": [
        {
          "internalType": "address",
          "name": "asset_",
          "type": "address"
        }
      ],
      "name": "getSupportedAsset",
      "outputs": [
        {
          "components": [
            {
              "internalType": "address",
              "name": "asset",
              "type": "address"
            },
            {
              "internalType": "string",
              "name": "symbol",
              "type": "string"
            },
            {
              "internalType": "uint8",
              "name": "id",
              "type": "uint8"
            },
            {
              "internalType": "bool",
              "name": "enabled",
              "type": "bool"
            }
          ],
          "internalType": "struct BountyPledgeDataUpgradeable.AssetCoin",
          "name": "",
          "type": "tuple"
        }
      ],
      "stateMutability": "view",
      "type": "function",
      "constant": true
    },
    {
      "inputs": [
        {
          "internalType": "string",
          "name": "symbol_",
          "type": "string"
        }
      ],
      "name": "getSupportedAssetBySymbol",
      "outputs": [
        {
          "components": [
            {
              "internalType": "address",
              "name": "asset",
              "type": "address"
            },
            {
              "internalType": "string",
              "name": "symbol",
              "type": "string"
            },
            {
              "internalType": "uint8",
              "name": "id",
              "type": "uint8"
            },
            {
              "internalType": "bool",
              "name": "enabled",
              "type": "bool"
            }
          ],
          "internalType": "struct BountyPledgeDataUpgradeable.AssetCoin",
          "name": "",
          "type": "tuple"
        }
      ],
      "stateMutability": "view",
      "type": "function",
      "constant": true
    },
    {
      "inputs": [
        {
          "internalType": "uint256",
          "name": "startTime_",
          "type": "uint256"
        },
        {
          "internalType": "uint256",
          "name": "endTime_",
          "type": "uint256"
        },
        {
          "internalType": "uint8",
          "name": "bountyType_",
          "type": "uint8"
        },
        {
          "internalType": "string",
          "name": "cid_",
          "type": "string"
        },
        {
          "internalType": "uint256",
          "name": "reward_",
          "type": "uint256"
        },
        {
          "internalType": "string",
          "name": "rewardUnit_",
          "type": "string"
        }
      ],
      "name": "pledge2",
      "outputs": [
        {
          "internalType": "bytes32",
          "name": "",
          "type": "bytes32"
        }
      ],
      "stateMutability": "payable",
      "type": "function",
      "payable": true
    },
    {
      "inputs": [
        {
          "components": [
            {
              "internalType": "uint256",
              "name": "startTime",
              "type": "uint256"
            },
            {
              "internalType": "uint256",
              "name": "endTime",
              "type": "uint256"
            },
            {
              "internalType": "uint8",
              "name": "bountyType",
              "type": "uint8"
            },
            {
              "internalType": "string",
              "name": "cid",
              "type": "string"
            },
            {
              "internalType": "uint256",
              "name": "reward",
              "type": "uint256"
            },
            {
              "internalType": "string",
              "name": "rewardUnit",
              "type": "string"
            }
          ],
          "internalType": "struct BountyPledgeDataUpgradeable.PledgeRequest",
          "name": "req",
          "type": "tuple"
        }
      ],
      "name": "pledge",
      "outputs": [
        {
          "internalType": "bytes32",
          "name": "",
          "type": "bytes32"
        }
      ],
      "stateMutability": "payable",
      "type": "function",
      "payable": true
    },
    {
      "inputs": [
        {
          "internalType": "string",
          "name": "bountyCid",
          "type": "string"
        },
        {
          "internalType": "address",
          "name": "to",
          "type": "address"
        },
        {
          "internalType": "uint256",
          "name": "amount",
          "type": "uint256"
        },
        {
          "internalType": "string",
          "name": "contributeCid",
          "type": "string"
        }
      ],
      "name": "transfer",
      "outputs": [],
      "stateMutability": "payable",
      "type": "function",
      "payable": true
    },
    {
      "inputs": [
        {
          "internalType": "string",
          "name": "bountyCid",
          "type": "string"
        }
      ],
      "name": "withdraw",
      "outputs": [],
      "stateMutability": "payable",
      "type": "function",
      "payable": true
    }
  ],
  "bytecode": "0x608060405234801561001057600080fd5b50613366806100206000396000f3fe6080604052600436106101c65760003560e01c806370807528116100f757806395d89b4111610095578063e6a0706311610064578063e6a07063146104f0578063f04edd8714610510578063f2fde38b14610530578063fbbe2f311461055057600080fd5b806395d89b411461047b578063b84c824614610490578063c0f50f68146104b0578063c47f0027146104d057600080fd5b80638acfcaf7116100d15780638acfcaf7146103fe5780638da5cb5b146104135780638eafdeb91461043b57806395a4c5251461044e57600080fd5b806370807528146103b6578063715018a6146103d657806383af9bc2146103eb57600080fd5b80632aef4024116101645780633bc430a51161013e5780633bc430a514610319578063421513371461034657806357f5606114610366578063626381a01461039357600080fd5b80632aef4024146102c35780633169953b146102e357806331fb67c21461030657600080fd5b80630dd7531a116101a05780630dd7531a146102415780630f7e59701461026e57806324817ead1461029b57806327b64a31146102ae57600080fd5b806306fdde03146101d25780630b54817c146101fd5780630bf4ae701461022a57600080fd5b366101cd57005b600080fd5b3480156101de57600080fd5b506101e7610570565b6040516101f491906129c0565b60405180910390f35b34801561020957600080fd5b506101e7604051806040016040528060018152602001608960f81b81525081565b34801561023657600080fd5b5061023f610602565b005b34801561024d57600080fd5b506101e7604051806040016040528060018152602001600160f81b81525081565b34801561027a57600080fd5b506101e7604051806040016040528060018152602001603160f81b81525081565b61023f6102a9366004612ac2565b610616565b3480156102ba57600080fd5b5061023f610bb1565b3480156102cf57600080fd5b5061023f6102de366004612b40565b610bc8565b3480156102ef57600080fd5b5060995460ff1660405190151581526020016101f4565b61023f610314366004612b5b565b610cd6565b34801561032557600080fd5b50610339610334366004612b40565b610f67565b6040516101f49190612b90565b34801561035257600080fd5b50610339610361366004612b5b565b610f9b565b34801561037257600080fd5b50610386610381366004612b5b565b610ff2565b6040516101f49190612be3565b34801561039f57600080fd5b506103a8608981565b6040519081526020016101f4565b3480156103c257600080fd5b5061023f6103d1366004612b40565b611003565b3480156103e257600080fd5b5061023f611103565b6103a86103f9366004612c9f565b611117565b34801561040a57600080fd5b506103a8600181565b34801561041f57600080fd5b506067546040516001600160a01b0390911681526020016101f4565b6103a8610449366004612d2f565b611161565b34801561045a57600080fd5b5061046e610469366004612b5b565b611443565b6040516101f49190612def565b34801561048757600080fd5b506101e7611537565b34801561049c57600080fd5b5061023f6104ab366004612b5b565b611546565b3480156104bc57600080fd5b506103a86104cb366004612b5b565b61155a565b3480156104dc57600080fd5b5061023f6104eb366004612b5b565b61158a565b3480156104fc57600080fd5b5061023f61050b366004612e93565b61159b565b34801561051c57600080fd5b5061023f61052b366004612f41565b61171a565b34801561053c57600080fd5b5061023f61054b366004612b40565b6117aa565b34801561055c57600080fd5b5061023f61056b366004612f86565b611820565b6060609a805461057f90612fd4565b80601f01602080910402602001604051908101604052809291908181526020018280546105ab90612fd4565b80156105f85780601f106105cd576101008083540402835291602001916105f8565b820191906000526020600020905b8154815290600101906020018083116105db57829003601f168201915b5050505050905090565b61060a6118ef565b6099805460ff19169055565b60006106218561155a565b60995490915060ff1661064f5760405162461bcd60e51b81526004016106469061300f565b60405180910390fd5b609f600061065c8461155a565b815260208101919091526040016000205460ff16156106cf5760405162461bcd60e51b815260206004820152602960248201527f506c656467653a72656475706c6963617469766520636f6e747269627574652060448201526837b9103bb4b73732b960b91b6064820152608401610646565b6000818152609d60205260409020546107255760405162461bcd60e51b8152602060048201526018602482015277141b195919d94e88189bdd5b9d1e481b9bdd08199bdd5b9960421b6044820152606401610646565b6000818152609d602052604090206007015460ff166001146107895760405162461bcd60e51b815260206004820152601860248201527f506c6567653a54686520626f756e7479206973206f76657200000000000000006044820152606401610646565b6000818152609d60205260409020600101544211156107f65760405162461bcd60e51b815260206004820152602360248201527f506c656467653a2054686520626f756e7479206163746976697479206973206f6044820152623b32b960e91b6064820152608401610646565b6000818152609d60205260409020600201546001600160a01b031633146108585760405162461bcd60e51b8152602060048201526016602482015275283632b233b29d103737ba103a34329037bbb732b91760511b6044820152606401610646565b600083116108c25760405162461bcd60e51b815260206004820152603160248201527f506c656467653a207472616e7366657220616d6f756e74206d7573742062652060448201527067726561746572207468616e207a65726f60781b6064820152608401610646565b6000818152609d60205260409020600501548311156109235760405162461bcd60e51b815260206004820152601c60248201527f506c656467653a206e6f742073756666696369656e742066756e6473000000006044820152606401610646565b6000818152609d6020526040812060060180546109c7919061094490612fd4565b80601f016020809104026020016040519081016040528092919081815260200182805461097090612fd4565b80156109bd5780601f10610992576101008083540402835291602001916109bd565b820191906000526020600020905b8154815290600101906020018083116109a057829003601f168201915b5050505050611949565b6000838152609d60205260408120600501549192509081906109e99087611a38565b9150915081610a495760405162461bcd60e51b815260206004820152602660248201527f506c656467653a4661696c20746f207472616e736665722e7061796d656e742060448201526519985a5b195960d21b6064820152608401610646565b6000848152609d60209081526040808320600501849055609e825282208054600181018255908352918190208751610a889391909101918801906127f0565b506001609f6000610a988861155a565b81526020810191909152604001600020805460ff191691151591909117905580610ad9576000848152609d60205260409020600701805460ff191660021790555b8251610aef906001600160a01b03168888611a5e565b83876001600160a01b0316609d600087815260200190815260200160002060020160009054906101000a90046001600160a01b03166001600160a01b03167fba683d94f8ab8e3fc39d318e64f0df170c51344d7e74222116640daaf61baf6b89609d60008a815260200190815260200160002060070160009054906101000a900460ff16609d60008b81526020019081526020016000206004016002018e8c604051610b9f9594939291906130f4565b60405180910390a45050505050505050565b610bb96118ef565b6099805460ff19166001179055565b610bd06118ef565b60995460ff16610bf25760405162461bcd60e51b81526004016106469061300f565b6001600160a01b038116610c185760405162461bcd60e51b81526004016106469061313c565b6001600160a01b038116600090815260a0602052604090206002015460ff16610c535760405162461bcd60e51b815260040161064690613173565b6001600160a01b03818116600090815260a06020526040908190206002808201805461010061ff0019821681179283905584549551939660ff9283169616947f0d0fdbe5abe58aa6e1f895af84c9940e0f1c6605159211092e73982e8cc4218e94610ccb9460019092019392909104909116906131aa565b60405180910390a450565b6000610ce18261155a565b60995490915060ff16610d065760405162461bcd60e51b81526004016106469061300f565b6000818152609d6020526040902054610d5c5760405162461bcd60e51b8152602060048201526018602482015277141b195919d94e88189bdd5b9d1e481b9bdd08199bdd5b9960421b6044820152606401610646565b6000818152609d60205260409020600201546001600160a01b03163314610dd15760405162461bcd60e51b815260206004820152602360248201527f506c656467653a204e6f7420746865206f776e6572206f662074686520626f756044820152626e747960e81b6064820152608401610646565b6000818152609d6020526040902060010154421015610e3c5760405162461bcd60e51b815260206004820152602160248201527f506c656467653a205761697420666f722074686520657870697265642074696d6044820152606560f81b6064820152608401610646565b6000818152609d6020526040902060050154610e9a5760405162461bcd60e51b815260206004820152601c60248201527f506c656467653a206e6f742073756666696369656e742066756e6473000000006044820152606401610646565b6000818152609d602052604081206006018054610ebb919061094490612fd4565b6000838152609d6020526040812060058101805492905560078101805460ff191660031790556002015482519293509091610f03916001600160a01b03918216911683611a5e565b6000838152609d602052604090819020600781015491518392869233927f7049445bd308cc9c764c5d6a197d251dd2b1ff724ab13a8d51b17fb4c44eab9292610f599260ff909116916006909101908b906131ce565b60405180910390a450505050565b60408051608081018252600080825260606020830181905292820181905291810191909152610f9582611a93565b92915050565b60408051608081018252600080825260606020830181905292820181905291810182905290610fc983611b9b565b90506000816040015160ff1611610f955760405162461bcd60e51b815260040161064690613173565b610ffa612874565b610f9582611c27565b61100b6118ef565b60995460ff1661102d5760405162461bcd60e51b81526004016106469061300f565b6001600160a01b0381166110535760405162461bcd60e51b81526004016106469061313c565b6001600160a01b038116600090815260a0602052604090206002015460ff1661108e5760405162461bcd60e51b815260040161064690613173565b6001600160a01b03808216600090815260a06020526040908190206002808201805461ff001981169182905583549451929560ff9182169516937f0d0fdbe5abe58aa6e1f895af84c9940e0f1c6605159211092e73982e8cc4218e93610ccb93600190920192610100909204909116906131aa565b61110b6118ef565b6111156000611df6565b565b6000806040518060c001604052808981526020018881526020018760ff16815260200186815260200185815260200184815250905061115581611161565b98975050505050505050565b600080611171836060015161155a565b60995490915060ff166111965760405162461bcd60e51b81526004016106469061300f565b6000818152609d60205260409020546001116111f45760405162461bcd60e51b815260206004820152601e60248201527f506c656467653a20657869737473207468652073616d6520626f756e747900006044820152606401610646565b60006112038460a00151611949565b905060008460800151116112755760405162461bcd60e51b815260206004820152603360248201527f506c656467653a2067756172616e7465652066756e64732073686f756c642062604482015272652067726561746572207468616e207a65726f60681b6064820152608401610646565b6020840151845110801561128c5750428460200151115b6112d85760405162461bcd60e51b815260206004820152601d60248201527f506c656467653a20696e76616c6964206475726174696f6e2074696d650000006044820152606401610646565b60006112e385611e48565b6000848152609d60209081526040918290208351815581840151600182015591830151600283018054606086015160ff16600160a01b026001600160a81b03199091166001600160a01b039093169290921791909117905560808301518051939450849361135792600385019201906127f0565b5060a082015180516004830190815560208083015160058501556040830151805161138892600687019201906127f0565b50505060c091909101516007909101805460ff191660ff909216919091179055608085015182516113c4916001600160a01b0390911690611ebb565b508060a00151600001518382604001516001600160a01b03167fd03d4a3a7acae67e86c3f69ea94589cf77eaaaa8cd68a5d8767454bdfaccd1738460000151856020015186606001518760c001518860a0015160400151896080015160405161143296959493929190613206565b60405180910390a450909392505050565b6060609e60006114528461155a565b8152602001908152602001600020805480602002602001604051908101604052809291908181526020016000905b8282101561152c57838290600052602060002001805461149f90612fd4565b80601f01602080910402602001604051908101604052809291908181526020018280546114cb90612fd4565b80156115185780601f106114ed57610100808354040283529160200191611518565b820191906000526020600020905b8154815290600101906020018083116114fb57829003601f168201915b505050505081526020019060010190611480565b505050509050919050565b6060609b805461057f90612fd4565b61154e6118ef565b6115578161209a565b50565b60008160405160200161156d9190613256565b604051602081830303815290604052805190602001209050919050565b6115926118ef565b611557816120b1565b600054610100900460ff16158080156115bb5750600054600160ff909116105b806115d55750303b1580156115d5575060005460ff166001145b6116385760405162461bcd60e51b815260206004820152602e60248201527f496e697469616c697a61626c653a20636f6e747261637420697320616c72656160448201526d191e481a5b9a5d1a585b1a5e995960921b6064820152608401610646565b6000805460ff19166001179055801561165b576000805461ff0019166101001790555b61166a888888888888886120c4565b611672612152565b6116ca88888080601f016020809104026020016040519081016040528093929190818152602001838380828437600092019190915250506040805180820190915260018152603160f81b602082015291506121819050565b8015611710576000805461ff0019169055604051600181527f7f26b83ff96e1f2b6a682f133852f6798a09c465da95921460cefb38474024989060200160405180910390a15b5050505050505050565b6117226118ef565b6000609d60006117318561155a565b815260200190815260200160002060000154116117845760405162461bcd60e51b8152602060048201526011602482015270506c656467653a6e6f742065786973747360781b6044820152606401610646565b80609d60006117928561155a565b81526020810191909152604001600020600101555050565b6117b26118ef565b6001600160a01b0381166118175760405162461bcd60e51b815260206004820152602660248201527f4f776e61626c653a206e6577206f776e657220697320746865207a65726f206160448201526564647265737360d01b6064820152608401610646565b61155781611df6565b6118286118ef565b60995460ff1661184a5760405162461bcd60e51b81526004016106469061300f565b6001600160a01b0382166118705760405162461bcd60e51b81526004016106469061313c565b6001600160a01b038216600090815260a06020526040902060020154600160ff909116106118e05760405162461bcd60e51b815260206004820152601f60248201527f506c656467653a2045786973747320737570706f7274656420617373657420006044820152606401610646565b6118ea82826121b2565b505050565b6067546001600160a01b031633146111155760405162461bcd60e51b815260206004820181905260248201527f4f776e61626c653a2063616c6c6572206973206e6f7420746865206f776e65726044820152606401610646565b6040805160808101825260008082526060602083018190529282018190529181018290529061197783611b9b565b90506000816040015160ff16116119e75760405162461bcd60e51b815260206004820152602e60248201527f506c656467653a204e6f7420737570706f727420746865206173736574206f7260448201526d081a5b9d985b1a5908185cdcd95d60921b6064820152608401610646565b8060600151610f955760405162461bcd60e51b815260206004820152601d60248201527f506c656467653a205468652061737365742069732064697361626c65640000006044820152606401610646565b60008083831115611a4e57506000905080611a57565b50600190508183035b9250929050565b6001600160a01b038316611a7f576118ea6001600160a01b03831682612366565b6118ea6001600160a01b038416838361247f565b60408051608080820183526000808352606060208085018290528486018390529084018290526001600160a01b03868116835260a08252918590208551938401909552845490911682526001840180549394929391840191611af490612fd4565b80601f0160208091040260200160405190810160405280929190818152602001828054611b2090612fd4565b8015611b6d5780601f10611b4257610100808354040283529160200191611b6d565b820191906000526020600020905b815481529060010190602001808311611b5057829003601f168201915b50505091835250506002919091015460ff808216602084015261010090910416151560409091015292915050565b6040805160808101825260008082526060602083018190529282018190529181019190915260a0600060a16000611bd18661155a565b815260208082019290925260409081016000908120546001600160a01b039081168552848401959095529281019092208251608081019093528054909316825260018301805492939291840191611af490612fd4565b611c2f612874565b6000611c3a8361155a565b6000818152609d6020908152604091829020825160e0810184528154815260018201549281019290925260028101546001600160a01b03811693830193909352600160a01b90920460ff1660608201526003820180549394509092608084019190611ca490612fd4565b80601f0160208091040260200160405190810160405280929190818152602001828054611cd090612fd4565b8015611d1d5780601f10611cf257610100808354040283529160200191611d1d565b820191906000526020600020905b815481529060010190602001808311611d0057829003601f168201915b50505050508152602001600482016040518060600160405290816000820154815260200160018201548152602001600282018054611d5a90612fd4565b80601f0160208091040260200160405190810160405280929190818152602001828054611d8690612fd4565b8015611dd35780601f10611da857610100808354040283529160200191611dd3565b820191906000526020600020905b815481529060010190602001808311611db657829003601f168201915b5050509190925250505081526007919091015460ff166020909101529392505050565b606780546001600160a01b038381166001600160a01b0319831681179093556040519116919082907f8be0079c531659141344cd1fd0a4f28419497f9722a3daafe3b4186f6b6457e090600090a35050565b611e50612874565b506040805160e081018252825181526020808401518183015233828401528383015160ff166060808401919091528085015160808085019190915284519182018552850180518252519181019190915260a0938401519281019290925291820152600160c082015290565b60006001600160a01b038316611f1b57813410156040518060400160405280600381526020016224a6ab60e91b81525090611f095760405162461bcd60e51b815260040161064691906129c0565b50611f148234613272565b9050610f95565b6040516370a0823160e01b81523060048201526000906001600160a01b038516906370a0823190602401602060405180830381865afa158015611f62573d6000803e3d6000fd5b505050506040513d601f19601f82011682018060405250810190611f869190613297565b9050611f9d6001600160a01b0385163330866124e2565b6040516370a0823160e01b81523060048201526000908190612014906001600160a01b038816906370a0823190602401602060405180830381865afa158015611fea573d6000803e3d6000fd5b505050506040513d601f19601f8201168201806040525081019061200e9190613297565b84611a38565b91509150816040518060400160405280600381526020016249524160e81b815250906120535760405162461bcd60e51b815260040161064691906129c0565b5060408051808201909152600381526249524160e81b602082015281861461208e5760405162461bcd60e51b815260040161064691906129c0565b50349695505050505050565b80516120ad90609b9060208401906127f0565b5050565b80516120ad90609a9060208401906127f0565b600054610100900460ff166120eb5760405162461bcd60e51b8152600401610646906132b0565b6099805460ff19166001179055612104609a88886128df565b50612111609b86866128df565b506117108383838080601f0160208091040260200160405190810160405280939291908181526020018383808284376000920191909152506121b292505050565b600054610100900460ff166121795760405162461bcd60e51b8152600401610646906132b0565b611115612520565b600054610100900460ff166121a85760405162461bcd60e51b8152600401610646906132b0565b6120ad8282612550565b604080516080810182526000808252606060208301819052928201819052918101919091526121e5609c80546001019055565b60006121f0609c5490565b604080516080810182526001600160a01b03878116808352602080840189815260ff871685870152600160608601819052600093845260a0835295909220845181546001600160a01b03191694169390931783559051805195965092948594929361225f9385019201906127f0565b5060408201516002909101805460609093015115156101000261ffff1990931660ff909216919091179190911790558460a1600061229c8761155a565b81526020808201929092526040908101600090812080546001600160a01b03199081166001600160a01b039687161790915560a2805460018181018355919093527faaf4f58de99300cfadc4585755f376d5fa747d5bc561d5bd9d710de1f91bf42d90920180549091168a86161790558482015185519386015160608701519351929560ff90921694909116927f0d0fdbe5abe58aa6e1f895af84c9940e0f1c6605159211092e73982e8cc4218e926123569291906132fb565b60405180910390a4949350505050565b804710156123b65760405162461bcd60e51b815260206004820152601d60248201527f416464726573733a20696e73756666696369656e742062616c616e63650000006044820152606401610646565b6000826001600160a01b03168260405160006040518083038185875af1925050503d8060008114612403576040519150601f19603f3d011682016040523d82523d6000602084013e612408565b606091505b50509050806118ea5760405162461bcd60e51b815260206004820152603a60248201527f416464726573733a20756e61626c6520746f2073656e642076616c75652c207260448201527f6563697069656e74206d617920686176652072657665727465640000000000006064820152608401610646565b6040516001600160a01b0383166024820152604481018290526118ea90849063a9059cbb60e01b906064015b60408051601f198184030181529190526020810180516001600160e01b03166001600160e01b031990931692909217909152612591565b6040516001600160a01b038085166024830152831660448201526064810182905261251a9085906323b872dd60e01b906084016124ab565b50505050565b600054610100900460ff166125475760405162461bcd60e51b8152600401610646906132b0565b61111533611df6565b600054610100900460ff166125775760405162461bcd60e51b8152600401610646906132b0565b815160209283012081519190920120600191909155600255565b60006125e6826040518060400160405280602081526020017f5361666545524332303a206c6f772d6c6576656c2063616c6c206661696c6564815250856001600160a01b03166126639092919063ffffffff16565b8051909150156118ea5780806020019051810190612604919061330e565b6118ea5760405162461bcd60e51b815260206004820152602a60248201527f5361666545524332303a204552433230206f7065726174696f6e20646964206e6044820152691bdd081cdd58d8d9595960b21b6064820152608401610646565b6060612672848460008561267a565b949350505050565b6060824710156126db5760405162461bcd60e51b815260206004820152602660248201527f416464726573733a20696e73756666696369656e742062616c616e636520666f6044820152651c8818d85b1b60d21b6064820152608401610646565b600080866001600160a01b031685876040516126f79190613256565b60006040518083038185875af1925050503d8060008114612734576040519150601f19603f3d011682016040523d82523d6000602084013e612739565b606091505b509150915061274a87838387612755565b979650505050505050565b606083156127c15782516127ba576001600160a01b0385163b6127ba5760405162461bcd60e51b815260206004820152601d60248201527f416464726573733a2063616c6c20746f206e6f6e2d636f6e74726163740000006044820152606401610646565b5081612672565b61267283838151156127d65781518083602001fd5b8060405162461bcd60e51b815260040161064691906129c0565b8280546127fc90612fd4565b90600052602060002090601f01602090048101928261281e5760008555612864565b82601f1061283757805160ff1916838001178555612864565b82800160010185558215612864579182015b82811115612864578251825591602001919060010190612849565b50612870929150612953565b5090565b6040518060e00160405280600081526020016000815260200160006001600160a01b03168152602001600060ff168152602001606081526020016128d260405180606001604052806000815260200160008152602001606081525090565b8152600060209091015290565b8280546128eb90612fd4565b90600052602060002090601f01602090048101928261290d5760008555612864565b82601f106129265782800160ff19823516178555612864565b82800160010185558215612864579182015b82811115612864578235825591602001919060010190612938565b5b808211156128705760008155600101612954565b60005b8381101561298357818101518382015260200161296b565b8381111561251a5750506000910152565b600081518084526129ac816020860160208601612968565b601f01601f19169290920160200192915050565b6020815260006129d36020830184612994565b9392505050565b634e487b7160e01b600052604160045260246000fd5b60405160c0810167ffffffffffffffff81118282101715612a1357612a136129da565b60405290565b600082601f830112612a2a57600080fd5b813567ffffffffffffffff80821115612a4557612a456129da565b604051601f8301601f19908116603f01168101908282118183101715612a6d57612a6d6129da565b81604052838152866020858801011115612a8657600080fd5b836020870160208301376000602085830101528094505050505092915050565b80356001600160a01b0381168114612abd57600080fd5b919050565b60008060008060808587031215612ad857600080fd5b843567ffffffffffffffff80821115612af057600080fd5b612afc88838901612a19565b9550612b0a60208801612aa6565b9450604087013593506060870135915080821115612b2757600080fd5b50612b3487828801612a19565b91505092959194509250565b600060208284031215612b5257600080fd5b6129d382612aa6565b600060208284031215612b6d57600080fd5b813567ffffffffffffffff811115612b8457600080fd5b61267284828501612a19565b602080825282516001600160a01b03168282015282015160806040830152600090612bbe60a0840182612994565b905060ff60408501511660608401526060840151151560808401528091505092915050565b60208152815160208201526020820151604082015260018060a01b03604083015116606082015260ff60608301511660808201526000608083015160e060a0840152612c33610100840182612994565b905060a0840151601f198483030160c085015280518252602081015160208301526040810151905060606040830152612c6f6060830182612994565b91505060c0840151612c8660e085018260ff169052565b509392505050565b803560ff81168114612abd57600080fd5b60008060008060008060c08789031215612cb857600080fd5b8635955060208701359450612ccf60408801612c8e565b9350606087013567ffffffffffffffff80821115612cec57600080fd5b612cf88a838b01612a19565b94506080890135935060a0890135915080821115612d1557600080fd5b50612d2289828a01612a19565b9150509295509295509295565b600060208284031215612d4157600080fd5b813567ffffffffffffffff80821115612d5957600080fd5b9083019060c08286031215612d6d57600080fd5b612d756129f0565b8235815260208301356020820152612d8f60408401612c8e565b6040820152606083013582811115612da657600080fd5b612db287828601612a19565b6060830152506080830135608082015260a083013582811115612dd457600080fd5b612de087828601612a19565b60a08301525095945050505050565b6000602080830181845280855180835260408601915060408160051b870101925083870160005b82811015612e4457603f19888603018452612e32858351612994565b94509285019290850190600101612e16565b5092979650505050505050565b60008083601f840112612e6357600080fd5b50813567ffffffffffffffff811115612e7b57600080fd5b602083019150836020828501011115611a5757600080fd5b60008060008060008060006080888a031215612eae57600080fd5b873567ffffffffffffffff80821115612ec657600080fd5b612ed28b838c01612e51565b909950975060208a0135915080821115612eeb57600080fd5b612ef78b838c01612e51565b9097509550859150612f0b60408b01612aa6565b945060608a0135915080821115612f2157600080fd5b50612f2e8a828b01612e51565b989b979a50959850939692959293505050565b60008060408385031215612f5457600080fd5b823567ffffffffffffffff811115612f6b57600080fd5b612f7785828601612a19565b95602094909401359450505050565b60008060408385031215612f9957600080fd5b612fa283612aa6565b9150602083013567ffffffffffffffff811115612fbe57600080fd5b612fca85828601612a19565b9150509250929050565b600181811c90821680612fe857607f821691505b6020821081141561300957634e487b7160e01b600052602260045260246000fd5b50919050565b60208082526025908201527f506c656467653a207761697420666f72207468652073797374656d207265636f60408201526403b32b93c960dd1b606082015260800190565b8054600090600181811c908083168061306e57607f831692505b602080841082141561309057634e487b7160e01b600052602260045260246000fd5b838852602088018280156130ab57600181146130bc576130e7565b60ff198716825282820197506130e7565b60008981526020902060005b878110156130e1578154848201529086019084016130c8565b83019850505b5050505050505092915050565b85815260ff8516602082015260a06040820152600061311660a0830186613054565b82810360608401526131288186612994565b905082810360808401526111558185612994565b6020808252601d908201527f506c656467653a4e6f7420737570706f7274205a65726f206173736574000000604082015260600190565b6020808252601b908201527f506c656467653a204e6f7420666f756e64207468652061737365740000000000604082015260600190565b6040815260006131bd6040830185613054565b905082151560208301529392505050565b60ff841681526060602082015260006131ea6060830185613054565b82810360408401526131fc8185612994565b9695505050505050565b86815285602082015260ff8516604082015260ff8416606082015260c06080820152600061323760c0830185612994565b82810360a08401526132498185612994565b9998505050505050505050565b60008251613268818460208701612968565b9190910192915050565b60008282101561329257634e487b7160e01b600052601160045260246000fd5b500390565b6000602082840312156132a957600080fd5b5051919050565b6020808252602b908201527f496e697469616c697a61626c653a20636f6e7472616374206973206e6f74206960408201526a6e697469616c697a696e6760a81b606082015260800190565b6040815260006131bd6040830185612994565b60006020828403121561332057600080fd5b815180151581146129d357600080fdfea2646970667358221220a38926aaa2e7e0952c09331bd89cbf36d6543e6834ac646a8e902b22db180e2664736f6c634300080a0033",
  "immutableReferences": {},
  "source": "// SPDX-License-Identifier: MIT\npragma solidity >=0.4.22 <0.9.0;\n\nimport \"@openzeppelin/contracts-upgradeable/access/OwnableUpgradeable.sol\";\nimport \"@openzeppelin/contracts-upgradeable/proxy/utils/Initializable.sol\";\nimport \"@openzeppelin/contracts-upgradeable/utils/cryptography/ECDSAUpgradeable.sol\";\nimport \"@openzeppelin/contracts-upgradeable/utils/cryptography/EIP712Upgradeable.sol\";\nimport \"@openzeppelin/contracts-upgradeable/utils/math/SafeMathUpgradeable.sol\";\nimport \"@openzeppelin/contracts-upgradeable/utils/CountersUpgradeable.sol\";\nimport \"./libraries/Transfers.sol\";\nimport \"./libraries/BountyPledgeDataUpgradeable.sol\";\nimport \"./ChainConstants.sol\";\nimport \"./IBountyPledge.sol\";\n\n/**\n * reddit execute\n * https://polygonscan.com/address/0xab7a446621a2159fbff600276963a4113e7c6cfa#code\n */\n\nerror TimedForwarder__VerificationFailed();\nerror TimedForwarder__RequestExpired(uint256 expiry, uint256 actual);\n\ncontract BountyPledge is\n    Initializable,\n    EIP712Upgradeable,\n    OwnableUpgradeable,\n    ChainConstants,IBountyPledge\n{\n    using ECDSAUpgradeable for bytes32;\n    using Transfers for address;\n    using CountersUpgradeable for CountersUpgradeable.Counter;\n\n    bool private _theWorldStatus;// =true;=false;\n    string private _name;\n    string private _symbol;\n    //mapping(address => uint256) private _nonces;\n    CountersUpgradeable.Counter _assetIdIndexer; //asset Id \n    mapping(bytes32 => BountyPledgeDataUpgradeable.Bounty) internal _bounties; //bytes32:keccak256(cid)=>Bounty\n    mapping(bytes32 => string[]) internal _bountWinners; //bytes32:keccak256(cid)=>cid[]\n    mapping(bytes32 =>bool) internal _contributeWinnerIndexer;//\n    //\n    mapping(address => BountyPledgeDataUpgradeable.AssetCoin) internal _supportedAssetCoins; //  assetAddress => assetCoin\n    mapping(bytes32 => address) internal _supportedAssetSymbolIndexer; // :bytes32:keccak256(unit) => assetAddress\n   // mapping(uint8 => address) _supportedAssetIndexer; // :assetId => assetAddress\n    address[] private _assetCoinList; //\n\n    function initialize(\n        string calldata name_,\n        string calldata symbol_,\n        address usdt_,\n        string calldata coinUnit_\n    ) external initializer {\n        __BountyPledge_init_unchained(name_, symbol_, usdt_, coinUnit_);\n        __Ownable_init();\n        __EIP712_init(name_, ERC712_VERSION);\n    }\n\n    function __BountyPledge_init_unchained(\n        string calldata name_,\n        string calldata symbol_,\n        address usdt_,\n        string calldata coinUnit\n    ) internal onlyInitializing {\n        _theWorldStatus = true; //\n        _name = name_;\n        _symbol = symbol_;\n        _newAsset(usdt_, coinUnit);\n    }\n\n    function name() external view returns (string memory) {\n        return _name;\n    }\n\n    function setName(string memory name_) external onlyOwner {\n        _setName(name_);\n    }\n\n    function _setName(string memory name_) internal virtual {\n        _name = name_;\n    }\n\n    function symbol() external view returns (string memory) {\n        return _symbol;\n    }\n\n    function setSymbol(string memory symbol_) external onlyOwner {\n        _setSymbol(symbol_);\n    }\n\n    function _setSymbol(string memory symbol_) internal virtual {\n        _symbol = symbol_;\n    }\n\n    function getWorldStatus()public view returns(bool){\n        return _theWorldStatus;\n    }\n    function enableWorldStatus() public onlyOwner{\n        _theWorldStatus =true;\n    }\n    function disableWorldStatus() public onlyOwner {\n        _theWorldStatus =false;\n    }\n\n    function getBounty(string memory cid) external view returns (BountyPledgeDataUpgradeable.Bounty memory) {\n        return _getBounty(cid);\n    }\n\n    function getkeccak256(string memory cidUnit) public pure returns (bytes32) {\n        return keccak256(abi.encodePacked(cidUnit));\n    }\n\n    //bounty \n    function _getBounty(string memory cid)\n        internal\n        view\n        virtual\n        returns (BountyPledgeDataUpgradeable.Bounty memory)\n    {\n        bytes32 keccak256CID = getkeccak256(cid);\n        return _bounties[keccak256CID];\n    }\n\n    function _updateBounty(BountyPledgeDataUpgradeable.Bounty memory bounty)\n        internal\n        virtual\n        returns (bool)\n    {\n        bytes32 keccak256CID = getkeccak256(bounty.cid);\n        _bounties[keccak256CID] = bounty;\n        return true;\n    }\n\n    function getWinners(string memory cid)\n        external\n        view\n        returns (string[] memory)\n    {\n        return _bountWinners[getkeccak256(cid)];\n    }\n\n    //deprecated \n    function setBountyExpired(string memory cid, uint256 deadLine)\n        external\n        virtual\n        onlyOwner\n    {\n        require(\n            _bounties[getkeccak256(cid)].startTime > 0,\n            \"Pledge:not exists\"\n        );\n        _bounties[getkeccak256(cid)].endTime = deadLine;\n    }\n\n    function addSupporteAsset(address asset_, string memory symbol_)\n        external\n        virtual\n        onlyOwner\n    {\n        //asset  ERC20 \n        //\n        require(_theWorldStatus,\"Pledge: wait for the system recovery \");\n        require(asset_ != address(0x0), \"Pledge:Not support Zero asset\");\n        require(\n            _supportedAssetCoins[asset_].id < 1,\n            \"Pledge: Exists supported asset \"\n        );\n\n        //\n        _newAsset(asset_, symbol_);\n    }\n\n    /**\n     *  \n     */\n    function _newAsset(address asset_, string memory symbol_)\n        internal\n        returns (BountyPledgeDataUpgradeable.AssetCoin memory)\n    {\n        _assetIdIndexer.increment();\n        uint8 coinIdx = uint8(_assetIdIndexer.current());\n        BountyPledgeDataUpgradeable.AssetCoin memory asset = BountyPledgeDataUpgradeable.AssetCoin({\n            asset: asset_,\n            symbol: symbol_,\n            id: coinIdx,\n            enabled: true\n        });\n\n        _supportedAssetCoins[asset_] = asset; // \n        _supportedAssetSymbolIndexer[getkeccak256(symbol_) ] = asset_; //Id \n        _assetCoinList.push(asset_); //\n\n        emit AssetActivity(\n            asset.asset,\n            asset.id, //\n            1, // 1=2=(/)\n            asset.symbol, // \n            asset.enabled //\n        );\n        return asset;\n    }\n\n    function disableAsset(address asset_) external virtual onlyOwner {\n        require(_theWorldStatus,\"Pledge: wait for the system recovery \");\n        require(asset_ != address(0x0), \"Pledge:Not support Zero asset\");\n        require(\n            _supportedAssetCoins[asset_].id > 0,\n            \"Pledge: Not found the asset\"\n        );\n        //\n        _supportedAssetCoins[asset_].enabled = false;\n        emit AssetActivity(\n            _supportedAssetCoins[asset_].asset,\n            _supportedAssetCoins[asset_].id, //\n            2, // 1=2=(/)\n            _supportedAssetCoins[asset_].symbol, // \n            _supportedAssetCoins[asset_].enabled //\n        );\n    }\n\n    function enableAsset(address asset_) external virtual onlyOwner {\n        require(_theWorldStatus,\"Pledge: wait for the system recovery \");\n        require(asset_ != address(0x0), \"Pledge:Not support Zero asset\");\n        require(\n            _supportedAssetCoins[asset_].id > 0,\n            \"Pledge: Not found the asset\"\n        );\n        //\n        _supportedAssetCoins[asset_].enabled = true;\n        emit AssetActivity(\n            _supportedAssetCoins[asset_].asset,\n            _supportedAssetCoins[asset_].id, //\n            2, // 1=2=(/)\n            _supportedAssetCoins[asset_].symbol, // \n            _supportedAssetCoins[asset_].enabled //\n        );\n    }\n\n    function getSupportedAsset(address asset_)\n        external\n        view\n        returns (BountyPledgeDataUpgradeable.AssetCoin memory)\n    {\n        return _getSupportedAsset(asset_);\n    }\n\n    function _getSupportedAsset(address asset_)\n        internal\n        view\n        returns (BountyPledgeDataUpgradeable.AssetCoin memory)\n    {\n        return _supportedAssetCoins[asset_];\n    }\n\n    function getSupportedAssetBySymbol(string memory symbol_)\n        external\n        view\n        returns (BountyPledgeDataUpgradeable.AssetCoin memory)\n    {\n        BountyPledgeDataUpgradeable.AssetCoin memory _asset = _getSupportedAssetBySymbol(symbol_);\n        //require(_supportedAssetIndexer[assetId] !=address(0x0),\"Plege:Not found the asset indexer.\");//\n        require(_asset.id > 0, \"Pledge: Not found the asset\");\n\n        return _asset;\n    }\n\n    function _getSupportedAssetBySymbol(string memory symbol_)\n        internal\n        view\n        returns (BountyPledgeDataUpgradeable.AssetCoin memory)\n    {\n        return _supportedAssetCoins[_supportedAssetSymbolIndexer[getkeccak256(symbol_)]];\n    }\n\n    function _updateAsset(BountyPledgeDataUpgradeable.AssetCoin memory assertCoin)\n        internal\n        virtual\n        returns (bool)\n    {\n        _supportedAssetCoins[assertCoin.asset] = assertCoin;\n        return true;\n    }\n\n    function _checkSupportedAsset(string memory symbol_)\n        internal\n        virtual\n        returns (BountyPledgeDataUpgradeable.AssetCoin memory)\n    {\n        BountyPledgeDataUpgradeable.AssetCoin memory assetCoin = _getSupportedAssetBySymbol(symbol_);\n        //require(assetCoin.asset !=address(0x0),\"Plege: Not support the asset\");  //\n        require(\n            assetCoin.id > 0,\n            \"Pledge: Not support the asset or invalid asset\"\n        );\n        require(assetCoin.enabled, \"Pledge: The asset is disabled\");\n        return assetCoin;\n    }\n\n      /**\n     *  usdt approve\n     * \n     */\n    function pledge2( uint256 startTime_,\n        uint256 endTime_,\n        uint8 bountyType_,\n        string memory cid_,\n        uint256 reward_,\n        string memory rewardUnit_)\n        external\n        payable\n        virtual\n        returns (bytes32)\n    {\n        BountyPledgeDataUpgradeable.PledgeRequest memory req = BountyPledgeDataUpgradeable.PledgeRequest({\n              startTime:startTime_,\n          endTime:endTime_,\n          bountyType:bountyType_,\n            cid:cid_,\n          reward:reward_,\n            rewardUnit:rewardUnit_\n        });\n         return pledge(req);\n    }\n\n    /**\n     *  usdt approve\n     * \n     */\n    function pledge(BountyPledgeDataUpgradeable.PledgeRequest memory req)\n        public\n        payable\n        virtual\n        returns (bytes32)\n    {\n        bytes32 keccak256Cid = getkeccak256(req.cid);\n        require(_theWorldStatus,\"Pledge: wait for the system recovery \");\n        require(_bounties[keccak256Cid].startTime < 1 ,\"Pledge: exists the same bounty\"); //cid\n        //\n        BountyPledgeDataUpgradeable.AssetCoin memory assetCoin = _checkSupportedAsset(req.rewardUnit);\n        require(\n            req.reward > 0,\n            \"Pledge: guarantee funds should be greater than zero\"\n        );\n        //require(req.startTime >= block.timestamp, \"Pledge: startTime is expired\");\n        require(\n            req.startTime < req.endTime && req.endTime > block.timestamp,\n            \"Pledge: invalid duration time\"\n        );\n        // \n        //uint256 allowanceAmount  = _USDTERC20.getAllowance(_msgSender());\n        //require (allowanceAmount>=bounty_.reward.amount,\"Pledge:insufficient allowance\");\n        BountyPledgeDataUpgradeable.Bounty memory _bounty = _newBounty(req);\n        _bounties[keccak256Cid] = _bounty;\n        //\n       assetCoin.asset.transferIn(req.reward); // \n        //index.increment\n        \n        //todo emit event\n        emit BountyActivity(\n            _bounty.owner,\n            keccak256Cid,\n            _bounty.reward.amount,\n            _bounty.startTime,\n            _bounty.endTime,\n            _bounty.bountyType,\n            _bounty.status,\n            _bounty.reward.unit,\n            _bounty.cid\n        );\n        //emit BountyStatus(keccak256Cid, _bounty.status, 1,_bounty.cid); //model:1=bounty,2=contribution(),3= withdraw()\n\n        return keccak256Cid;\n    }\n\n    /**\n     *  bounty\n     */\n    function _newBounty(BountyPledgeDataUpgradeable.PledgeRequest memory req)\n        internal\n        virtual\n        returns (BountyPledgeDataUpgradeable.Bounty memory)\n    {\n        // Reward storage _reward = ;\n        BountyPledgeDataUpgradeable.Bounty memory _bounty = BountyPledgeDataUpgradeable.Bounty({\n            startTime: req.startTime,\n            endTime: req.endTime,\n            owner: _msgSender(),\n            bountyType: req.bountyType,\n            cid: req.cid,\n            reward: BountyPledgeDataUpgradeable.Reward({\n                amount: req.reward,\n                balance: req.reward,\n                unit: req.rewardUnit\n            }),\n            status: 1\n        });\n        return _bounty;\n    }\n\n    /**\n     * : \n     */\n    function transfer(\n        string memory bountyCid,\n        address to,\n        uint256 amount,\n        string memory contributeCid\n    ) public payable virtual {\n        bytes32 keccak256BountyCid = getkeccak256(bountyCid);\n        require(_theWorldStatus,\"Pledge: wait for the system recovery \");\n        require(!_contributeWinnerIndexer[getkeccak256(contributeCid)],\"Pledge:reduplicative contribute or winner\");\n        require(_bounties[keccak256BountyCid].startTime > 0, \"Pledge: bounty not found\");\n        \n        //bytes memory a = abi.encodePacked(\"Plege:the bounty is over.\",StringsUpgradeable.toString(_bounties[bountyId].status));\n        require(_bounties[keccak256BountyCid].status == 1, \"Plege:The bounty is over\");\n\n        require(\n            block.timestamp <= _bounties[keccak256BountyCid].endTime,\n            \"Pledge: The bounty activity is over\"\n        );\n\n        //bytes memory b = abi.encodePacked(\"Pledge: not the owner.\",StringsUpgradeable.toHexString(_bounties[bountyId].owner));\n        require(\n            _bounties[keccak256BountyCid].owner == _msgSender(),\n            \"Pledge: not the owner.\"\n        );\n        require(\n            amount > 0,\n            \"Pledge: transfer amount must be greater than zero\"\n        );\n        require(\n            _bounties[keccak256BountyCid].reward.balance >= amount,\n            \"Pledge: not sufficient funds\"\n        );\n\n        BountyPledgeDataUpgradeable.AssetCoin memory assetCoin = _checkSupportedAsset(\n            _bounties[keccak256BountyCid].reward.unit\n        );\n\n        (bool isSuccess, uint256 newBalance) = SafeMathUpgradeable.trySub(\n            _bounties[keccak256BountyCid].reward.balance,\n            amount\n        );\n        require(isSuccess, \"Pledge:Fail to transfer.payment failed\");\n\n        //\n        _bounties[keccak256BountyCid].reward.balance = newBalance;\n        //\n        _bountWinners[keccak256BountyCid].push(contributeCid); //cid\n        _contributeWinnerIndexer[getkeccak256(contributeCid)]=true;//\n\n        if (newBalance == 0) {\n            _bounties[keccak256BountyCid].status = 2; // \n        }\n        //\n        assetCoin.asset.transferOut(to, amount);\n        \n        emit TransferActivity(\n            _bounties[keccak256BountyCid].owner,\n            to,\n            keccak256BountyCid,\n            amount,\n            _bounties[keccak256BountyCid].status,\n            _bounties[keccak256BountyCid].reward.unit,\n            bountyCid,\n            contributeCid\n        );\n       // emit BountyStatus(  keccak256BountyCid,  _bounties[keccak256BountyCid].status, 2,  bountyCid ); //model:1=bounty,2=contribution(),3= withdraw()\n    }\n\n    /**\n     * \n     * 1bounty owner \n     * 2\n     * 3\n     */\n    function withdraw(string memory bountyCid) public payable virtual {\n        bytes32 keccak256BountyCid = getkeccak256(bountyCid);\n        require(_theWorldStatus,\"Pledge: wait for the system recovery \");\n        //require(_bounties[bountyId].status ==1,\"Plege:the bounty is over.\");\n        require(_bounties[keccak256BountyCid].startTime > 0, \"Pledge: bounty not found\");\n        require(\n            _bounties[keccak256BountyCid].owner == _msgSender(),\n            \"Pledge: Not the owner of the bounty\"\n        );\n        require(\n            block.timestamp >= _bounties[keccak256BountyCid].endTime,\n            \"Pledge: Wait for the expired time\"\n        );\n        require(\n            _bounties[keccak256BountyCid].reward.balance > 0,\n            \"Pledge: not sufficient funds\"\n        );\n\n        BountyPledgeDataUpgradeable.AssetCoin memory assetCoin = _checkSupportedAsset(\n            _bounties[keccak256BountyCid].reward.unit\n        );\n\n        uint256 _balance = _bounties[keccak256BountyCid].reward.balance;\n        _bounties[keccak256BountyCid].reward.balance = 0;\n        _bounties[keccak256BountyCid].status = 3; //  \n        assetCoin.asset.transferOut(_bounties[keccak256BountyCid].owner, _balance);\n\n        emit Withdraw(_msgSender(), keccak256BountyCid, _balance,_bounties[keccak256BountyCid].status,_bounties[keccak256BountyCid].reward.unit, bountyCid);\n       // emit BountyStatus( keccak256BountyCid, _bounties[keccak256BountyCid].status,  3,  bountyCid ); //model:1=bounty,2=contribution(),3= withdraw()\n    }\n\n    receive() external payable {\n        // this built-in function doesn't require any calldata,\n        // it will get called if the data field is empty and\n        // the value field is not empty.\n        // this allows the smart contract to receive ether just like a\n        // regular user account controlled by a private key would.\n    }\n    /*\n    function destroy() public onlyOwner{\n        selfdestruct(payable(_msgSender())); // \n    }\n    */\n}\n",
  "sourcePath": "/Users/xcdong/resource/project/Ethereum/dxch/chain-contracts/kugga-usdk/contracts/BountyPledge.sol",
  "compiler": {
    "name": "solc",
    "version": "0.8.10+commit.fc410830.Emscripten.clang"
  },
  "schemaVersion": "3.4.7",
  "updatedAt": "2023-04-05T03:43:28.279Z",
  "networkType": "ethereum",
  "devdoc": {
    "kind": "dev",
    "methods": {
      "owner()": {
        "details": "Returns the address of the current owner."
      },
      "renounceOwnership()": {
        "details": "Leaves the contract without owner. It will not be possible to call `onlyOwner` functions anymore. Can only be called by the current owner. NOTE: Renouncing ownership will leave the contract without an owner, thereby removing any functionality that is only available to the owner."
      },
      "transferOwnership(address)": {
        "details": "Transfers ownership of the contract to a new account (`newOwner`). Can only be called by the current owner."
      }
    },
    "version": 1
  },
  "userdoc": {
    "kind": "user",
    "methods": {
      "pledge((uint256,uint256,uint8,string,uint256,string))": {
        "notice": " usdt approve "
      },
      "pledge2(uint256,uint256,uint8,string,uint256,string)": {
        "notice": " usdt approve "
      },
      "transfer(string,address,uint256,string)": {
        "notice": ": "
      },
      "withdraw(string)": {
        "notice": " 1bounty owner  2 3"
      }
    },
    "version": 1
  }
}