{
  "contractName": "BountyPledgeV2",
  "abi": [
    {
      "anonymous": false,
      "inputs": [
        {
          "indexed": true,
          "internalType": "address",
          "name": "asset",
          "type": "address"
        },
        {
          "indexed": true,
          "internalType": "uint8",
          "name": "Id",
          "type": "uint8"
        },
        {
          "indexed": true,
          "internalType": "uint8",
          "name": "model",
          "type": "uint8"
        },
        {
          "indexed": false,
          "internalType": "string",
          "name": "symbol",
          "type": "string"
        },
        {
          "indexed": false,
          "internalType": "bool",
          "name": "enabled",
          "type": "bool"
        }
      ],
      "name": "AssetActivity",
      "type": "event"
    },
    {
      "anonymous": false,
      "inputs": [
        {
          "indexed": true,
          "internalType": "address",
          "name": "from",
          "type": "address"
        },
        {
          "indexed": true,
          "internalType": "bytes32",
          "name": "keccak256CID",
          "type": "bytes32"
        },
        {
          "indexed": true,
          "internalType": "uint256",
          "name": "reward",
          "type": "uint256"
        },
        {
          "indexed": false,
          "internalType": "uint256",
          "name": "startTime",
          "type": "uint256"
        },
        {
          "indexed": false,
          "internalType": "uint256",
          "name": "endTime",
          "type": "uint256"
        },
        {
          "indexed": false,
          "internalType": "uint8",
          "name": "bountyType",
          "type": "uint8"
        },
        {
          "indexed": false,
          "internalType": "uint8",
          "name": "status",
          "type": "uint8"
        },
        {
          "indexed": false,
          "internalType": "string",
          "name": "rewardUnit",
          "type": "string"
        },
        {
          "indexed": false,
          "internalType": "string",
          "name": "cid",
          "type": "string"
        }
      ],
      "name": "BountyActivity",
      "type": "event"
    },
    {
      "anonymous": false,
      "inputs": [
        {
          "indexed": false,
          "internalType": "uint8",
          "name": "version",
          "type": "uint8"
        }
      ],
      "name": "Initialized",
      "type": "event"
    },
    {
      "anonymous": false,
      "inputs": [
        {
          "indexed": true,
          "internalType": "address",
          "name": "previousOwner",
          "type": "address"
        },
        {
          "indexed": true,
          "internalType": "address",
          "name": "newOwner",
          "type": "address"
        }
      ],
      "name": "OwnershipTransferred",
      "type": "event"
    },
    {
      "anonymous": false,
      "inputs": [
        {
          "indexed": true,
          "internalType": "bytes32",
          "name": "keccak256CID",
          "type": "bytes32"
        },
        {
          "indexed": true,
          "internalType": "uint256",
          "name": "reward",
          "type": "uint256"
        },
        {
          "indexed": false,
          "internalType": "string",
          "name": "rewardUnit",
          "type": "string"
        },
        {
          "indexed": true,
          "internalType": "uint8",
          "name": "model",
          "type": "uint8"
        },
        {
          "indexed": false,
          "internalType": "uint8",
          "name": "status",
          "type": "uint8"
        },
        {
          "indexed": false,
          "internalType": "string",
          "name": "cid",
          "type": "string"
        }
      ],
      "name": "RewardActivity",
      "type": "event"
    },
    {
      "anonymous": false,
      "inputs": [
        {
          "indexed": true,
          "internalType": "address",
          "name": "from",
          "type": "address"
        },
        {
          "indexed": true,
          "internalType": "address",
          "name": "to",
          "type": "address"
        },
        {
          "indexed": true,
          "internalType": "bytes32",
          "name": "keccak256BountyCID",
          "type": "bytes32"
        },
        {
          "indexed": false,
          "internalType": "uint256",
          "name": "reward",
          "type": "uint256"
        },
        {
          "indexed": false,
          "internalType": "uint8",
          "name": "status",
          "type": "uint8"
        },
        {
          "indexed": false,
          "internalType": "string",
          "name": "rewardUnit",
          "type": "string"
        },
        {
          "indexed": false,
          "internalType": "string",
          "name": "bountyCid",
          "type": "string"
        },
        {
          "indexed": false,
          "internalType": "string",
          "name": "contributeCid",
          "type": "string"
        }
      ],
      "name": "TransferActivity",
      "type": "event"
    },
    {
      "anonymous": false,
      "inputs": [
        {
          "indexed": true,
          "internalType": "address",
          "name": "recipient",
          "type": "address"
        },
        {
          "indexed": true,
          "internalType": "bytes32",
          "name": "keccak256BountyCID",
          "type": "bytes32"
        },
        {
          "indexed": true,
          "internalType": "uint256",
          "name": "reward",
          "type": "uint256"
        },
        {
          "indexed": false,
          "internalType": "uint8",
          "name": "status",
          "type": "uint8"
        },
        {
          "indexed": false,
          "internalType": "string",
          "name": "rewardUnit",
          "type": "string"
        },
        {
          "indexed": false,
          "internalType": "string",
          "name": "bountyCid",
          "type": "string"
        }
      ],
      "name": "Withdraw",
      "type": "event"
    },
    {
      "inputs": [],
      "name": "CHILD_CHAIN_ID",
      "outputs": [
        {
          "internalType": "uint256",
          "name": "",
          "type": "uint256"
        }
      ],
      "stateMutability": "view",
      "type": "function",
      "constant": true
    },
    {
      "inputs": [],
      "name": "CHILD_CHAIN_ID_BYTES",
      "outputs": [
        {
          "internalType": "bytes",
          "name": "",
          "type": "bytes"
        }
      ],
      "stateMutability": "view",
      "type": "function",
      "constant": true
    },
    {
      "inputs": [],
      "name": "ERC712_VERSION",
      "outputs": [
        {
          "internalType": "string",
          "name": "",
          "type": "string"
        }
      ],
      "stateMutability": "view",
      "type": "function",
      "constant": true
    },
    {
      "inputs": [],
      "name": "ROOT_CHAIN_ID",
      "outputs": [
        {
          "internalType": "uint256",
          "name": "",
          "type": "uint256"
        }
      ],
      "stateMutability": "view",
      "type": "function",
      "constant": true
    },
    {
      "inputs": [],
      "name": "ROOT_CHAIN_ID_BYTES",
      "outputs": [
        {
          "internalType": "bytes",
          "name": "",
          "type": "bytes"
        }
      ],
      "stateMutability": "view",
      "type": "function",
      "constant": true
    },
    {
      "inputs": [
        {
          "internalType": "address",
          "name": "asset_",
          "type": "address"
        },
        {
          "internalType": "string",
          "name": "symbol_",
          "type": "string"
        }
      ],
      "name": "addSupporteAsset",
      "outputs": [],
      "stateMutability": "nonpayable",
      "type": "function"
    },
    {
      "inputs": [
        {
          "internalType": "address",
          "name": "asset_",
          "type": "address"
        }
      ],
      "name": "disableAsset",
      "outputs": [],
      "stateMutability": "nonpayable",
      "type": "function"
    },
    {
      "inputs": [],
      "name": "disableWorldStatus",
      "outputs": [],
      "stateMutability": "nonpayable",
      "type": "function"
    },
    {
      "inputs": [
        {
          "internalType": "address",
          "name": "asset_",
          "type": "address"
        }
      ],
      "name": "enableAsset",
      "outputs": [],
      "stateMutability": "nonpayable",
      "type": "function"
    },
    {
      "inputs": [],
      "name": "enableWorldStatus",
      "outputs": [],
      "stateMutability": "nonpayable",
      "type": "function"
    },
    {
      "inputs": [
        {
          "internalType": "string",
          "name": "cid",
          "type": "string"
        }
      ],
      "name": "getBounty",
      "outputs": [
        {
          "components": [
            {
              "internalType": "uint256",
              "name": "startTime",
              "type": "uint256"
            },
            {
              "internalType": "uint256",
              "name": "endTime",
              "type": "uint256"
            },
            {
              "internalType": "address",
              "name": "owner",
              "type": "address"
            },
            {
              "internalType": "uint8",
              "name": "bountyType",
              "type": "uint8"
            },
            {
              "internalType": "string",
              "name": "cid",
              "type": "string"
            },
            {
              "components": [
                {
                  "internalType": "uint256",
                  "name": "amount",
                  "type": "uint256"
                },
                {
                  "internalType": "uint256",
                  "name": "balance",
                  "type": "uint256"
                },
                {
                  "internalType": "string",
                  "name": "unit",
                  "type": "string"
                }
              ],
              "internalType": "struct BountyPledgeDataUpgradeable.Reward",
              "name": "reward",
              "type": "tuple"
            },
            {
              "internalType": "uint8",
              "name": "status",
              "type": "uint8"
            }
          ],
          "internalType": "struct BountyPledgeDataUpgradeable.Bounty",
          "name": "",
          "type": "tuple"
        }
      ],
      "stateMutability": "view",
      "type": "function",
      "constant": true
    },
    {
      "inputs": [
        {
          "internalType": "address",
          "name": "asset_",
          "type": "address"
        }
      ],
      "name": "getSupportedAsset",
      "outputs": [
        {
          "components": [
            {
              "internalType": "address",
              "name": "asset",
              "type": "address"
            },
            {
              "internalType": "string",
              "name": "symbol",
              "type": "string"
            },
            {
              "internalType": "uint8",
              "name": "id",
              "type": "uint8"
            },
            {
              "internalType": "bool",
              "name": "enabled",
              "type": "bool"
            }
          ],
          "internalType": "struct BountyPledgeDataUpgradeable.AssetCoin",
          "name": "",
          "type": "tuple"
        }
      ],
      "stateMutability": "view",
      "type": "function",
      "constant": true
    },
    {
      "inputs": [
        {
          "internalType": "string",
          "name": "symbol_",
          "type": "string"
        }
      ],
      "name": "getSupportedAssetBySymbol",
      "outputs": [
        {
          "components": [
            {
              "internalType": "address",
              "name": "asset",
              "type": "address"
            },
            {
              "internalType": "string",
              "name": "symbol",
              "type": "string"
            },
            {
              "internalType": "uint8",
              "name": "id",
              "type": "uint8"
            },
            {
              "internalType": "bool",
              "name": "enabled",
              "type": "bool"
            }
          ],
          "internalType": "struct BountyPledgeDataUpgradeable.AssetCoin",
          "name": "",
          "type": "tuple"
        }
      ],
      "stateMutability": "view",
      "type": "function",
      "constant": true
    },
    {
      "inputs": [
        {
          "internalType": "string",
          "name": "cid",
          "type": "string"
        }
      ],
      "name": "getWinners",
      "outputs": [
        {
          "internalType": "string[]",
          "name": "",
          "type": "string[]"
        }
      ],
      "stateMutability": "view",
      "type": "function",
      "constant": true
    },
    {
      "inputs": [],
      "name": "getWorldStatus",
      "outputs": [
        {
          "internalType": "bool",
          "name": "",
          "type": "bool"
        }
      ],
      "stateMutability": "view",
      "type": "function",
      "constant": true
    },
    {
      "inputs": [
        {
          "internalType": "string",
          "name": "cidUnit",
          "type": "string"
        }
      ],
      "name": "getkeccak256",
      "outputs": [
        {
          "internalType": "bytes32",
          "name": "",
          "type": "bytes32"
        }
      ],
      "stateMutability": "pure",
      "type": "function",
      "constant": true
    },
    {
      "inputs": [
        {
          "internalType": "string",
          "name": "name_",
          "type": "string"
        },
        {
          "internalType": "string",
          "name": "symbol_",
          "type": "string"
        },
        {
          "internalType": "address",
          "name": "usdt_",
          "type": "address"
        },
        {
          "internalType": "string",
          "name": "coinUnit_",
          "type": "string"
        }
      ],
      "name": "initialize",
      "outputs": [],
      "stateMutability": "nonpayable",
      "type": "function"
    },
    {
      "inputs": [],
      "name": "name",
      "outputs": [
        {
          "internalType": "string",
          "name": "",
          "type": "string"
        }
      ],
      "stateMutability": "view",
      "type": "function",
      "constant": true
    },
    {
      "inputs": [],
      "name": "owner",
      "outputs": [
        {
          "internalType": "address",
          "name": "",
          "type": "address"
        }
      ],
      "stateMutability": "view",
      "type": "function",
      "constant": true
    },
    {
      "inputs": [
        {
          "components": [
            {
              "internalType": "uint256",
              "name": "startTime",
              "type": "uint256"
            },
            {
              "internalType": "uint256",
              "name": "endTime",
              "type": "uint256"
            },
            {
              "internalType": "uint8",
              "name": "bountyType",
              "type": "uint8"
            },
            {
              "internalType": "string",
              "name": "cid",
              "type": "string"
            },
            {
              "internalType": "uint256",
              "name": "reward",
              "type": "uint256"
            },
            {
              "internalType": "string",
              "name": "rewardUnit",
              "type": "string"
            }
          ],
          "internalType": "struct BountyPledgeDataUpgradeable.PledgeRequest",
          "name": "req",
          "type": "tuple"
        }
      ],
      "name": "pledge",
      "outputs": [
        {
          "internalType": "bytes32",
          "name": "",
          "type": "bytes32"
        }
      ],
      "stateMutability": "payable",
      "type": "function",
      "payable": true
    },
    {
      "inputs": [
        {
          "internalType": "uint256",
          "name": "startTime_",
          "type": "uint256"
        },
        {
          "internalType": "uint256",
          "name": "endTime_",
          "type": "uint256"
        },
        {
          "internalType": "uint8",
          "name": "bountyType_",
          "type": "uint8"
        },
        {
          "internalType": "string",
          "name": "cid_",
          "type": "string"
        },
        {
          "internalType": "uint256",
          "name": "reward_",
          "type": "uint256"
        },
        {
          "internalType": "string",
          "name": "rewardUnit_",
          "type": "string"
        }
      ],
      "name": "pledge2",
      "outputs": [
        {
          "internalType": "bytes32",
          "name": "",
          "type": "bytes32"
        }
      ],
      "stateMutability": "payable",
      "type": "function",
      "payable": true
    },
    {
      "inputs": [],
      "name": "renounceOwnership",
      "outputs": [],
      "stateMutability": "nonpayable",
      "type": "function"
    },
    {
      "inputs": [
        {
          "internalType": "string",
          "name": "cid",
          "type": "string"
        },
        {
          "internalType": "uint256",
          "name": "deadLine",
          "type": "uint256"
        }
      ],
      "name": "setBountyExpired",
      "outputs": [],
      "stateMutability": "nonpayable",
      "type": "function"
    },
    {
      "inputs": [
        {
          "internalType": "string",
          "name": "name_",
          "type": "string"
        }
      ],
      "name": "setName",
      "outputs": [],
      "stateMutability": "nonpayable",
      "type": "function"
    },
    {
      "inputs": [
        {
          "internalType": "string",
          "name": "symbol_",
          "type": "string"
        }
      ],
      "name": "setSymbol",
      "outputs": [],
      "stateMutability": "nonpayable",
      "type": "function"
    },
    {
      "inputs": [],
      "name": "symbol",
      "outputs": [
        {
          "internalType": "string",
          "name": "",
          "type": "string"
        }
      ],
      "stateMutability": "view",
      "type": "function",
      "constant": true
    },
    {
      "inputs": [
        {
          "internalType": "string",
          "name": "bountyCid",
          "type": "string"
        },
        {
          "internalType": "address",
          "name": "to",
          "type": "address"
        },
        {
          "internalType": "uint256",
          "name": "amount",
          "type": "uint256"
        },
        {
          "internalType": "string",
          "name": "contributeCid",
          "type": "string"
        }
      ],
      "name": "transfer",
      "outputs": [],
      "stateMutability": "payable",
      "type": "function",
      "payable": true
    },
    {
      "inputs": [
        {
          "internalType": "address",
          "name": "newOwner",
          "type": "address"
        }
      ],
      "name": "transferOwnership",
      "outputs": [],
      "stateMutability": "nonpayable",
      "type": "function"
    },
    {
      "inputs": [
        {
          "internalType": "string",
          "name": "bountyCid",
          "type": "string"
        }
      ],
      "name": "withdraw",
      "outputs": [],
      "stateMutability": "payable",
      "type": "function",
      "payable": true
    },
    {
      "stateMutability": "payable",
      "type": "receive",
      "payable": true
    },
    {
      "inputs": [
        {
          "internalType": "string",
          "name": "cid",
          "type": "string"
        },
        {
          "internalType": "uint256",
          "name": "amount",
          "type": "uint256"
        }
      ],
      "name": "increaseReward",
      "outputs": [],
      "stateMutability": "nonpayable",
      "type": "function"
    },
    {
      "inputs": [
        {
          "internalType": "string",
          "name": "cid",
          "type": "string"
        },
        {
          "internalType": "uint256",
          "name": "amount",
          "type": "uint256"
        }
      ],
      "name": "approveReward",
      "outputs": [],
      "stateMutability": "nonpayable",
      "type": "function"
    }
  ],
  "bytecode": "0x608060405234801561001057600080fd5b50613976806100206000396000f3fe6080604052600436106101dc5760003560e01c80637080752811610102578063ae1fdcd211610095578063e6a0706311610064578063e6a0706314610546578063f04edd8714610566578063f2fde38b14610586578063fbbe2f31146105a657600080fd5b8063ae1fdcd2146104c6578063b84c8246146104e6578063c0f50f6814610506578063c47f00271461052657600080fd5b80638da5cb5b116100d15780638da5cb5b146104495780638eafdeb91461047157806395a4c5251461048457806395d89b41146104b157600080fd5b806370807528146103ec578063715018a61461040c57806383af9bc2146104215780638acfcaf71461043457600080fd5b80632aef40241161017a5780634215133711610149578063421513371461035c57806357f560611461037c578063626381a0146103a9578063689bccc9146103cc57600080fd5b80632aef4024146102d95780633169953b146102f957806331fb67c21461031c5780633bc430a51461032f57600080fd5b80630dd7531a116101b65780630dd7531a146102575780630f7e59701461028457806324817ead146102b157806327b64a31146102c457600080fd5b806306fdde03146101e85780630b54817c146102135780630bf4ae701461024057600080fd5b366101e357005b600080fd5b3480156101f457600080fd5b506101fd6105c6565b60405161020a9190612f1b565b60405180910390f35b34801561021f57600080fd5b506101fd604051806040016040528060018152602001608960f81b81525081565b34801561024c57600080fd5b50610255610658565b005b34801561026357600080fd5b506101fd604051806040016040528060018152602001600160f81b81525081565b34801561029057600080fd5b506101fd604051806040016040528060018152602001603160f81b81525081565b6102556102bf36600461301d565b61066c565b3480156102d057600080fd5b50610255610bb3565b3480156102e557600080fd5b506102556102f436600461309b565b610bca565b34801561030557600080fd5b5060995460ff16604051901515815260200161020a565b61025561032a3660046130b6565b610cd8565b34801561033b57600080fd5b5061034f61034a36600461309b565b610f3e565b60405161020a91906130eb565b34801561036857600080fd5b5061034f6103773660046130b6565b610f72565b34801561038857600080fd5b5061039c6103973660046130b6565b610fc9565b60405161020a919061313e565b3480156103b557600080fd5b506103be608981565b60405190815260200161020a565b3480156103d857600080fd5b506102556103e73660046131e9565b610fda565b3480156103f857600080fd5b5061025561040736600461309b565b611273565b34801561041857600080fd5b50610255611373565b6103be61042f36600461323f565b611387565b34801561044057600080fd5b506103be600181565b34801561045557600080fd5b506067546040516001600160a01b03909116815260200161020a565b6103be61047f3660046132cf565b6113d1565b34801561049057600080fd5b506104a461049f3660046130b6565b6116b3565b60405161020a919061338f565b3480156104bd57600080fd5b506101fd6117a7565b3480156104d257600080fd5b506102556104e13660046131e9565b6117b6565b3480156104f257600080fd5b506102556105013660046130b6565b61199c565b34801561051257600080fd5b506103be6105213660046130b6565b6119b0565b34801561053257600080fd5b506102556105413660046130b6565b6119e0565b34801561055257600080fd5b50610255610561366004613433565b6119f1565b34801561057257600080fd5b506102556105813660046131e9565b611b70565b34801561059257600080fd5b506102556105a136600461309b565b611c00565b3480156105b257600080fd5b506102556105c13660046134e1565b611c76565b6060609a80546105d59061352f565b80601f01602080910402602001604051908101604052809291908181526020018280546106019061352f565b801561064e5780601f106106235761010080835404028352916020019161064e565b820191906000526020600020905b81548152906001019060200180831161063157829003601f168201915b5050505050905090565b610660611d45565b6099805460ff19169055565b6000610677856119b0565b60995490915060ff166106a55760405162461bcd60e51b815260040161069c9061356a565b60405180910390fd5b609f60006106b2846119b0565b815260208101919091526040016000205460ff16156107255760405162461bcd60e51b815260206004820152602960248201527f506c656467653a72656475706c6963617469766520636f6e747269627574652060448201526837b9103bb4b73732b960b91b606482015260840161069c565b6000818152609d60205260409020546107505760405162461bcd60e51b815260040161069c906135af565b6000818152609d602052604090206007015460ff166001146107b45760405162461bcd60e51b815260206004820152601860248201527f506c6567653a54686520626f756e7479206973206f7665720000000000000000604482015260640161069c565b6000818152609d60205260409020600101544211156108215760405162461bcd60e51b815260206004820152602360248201527f506c656467653a2054686520626f756e7479206163746976697479206973206f6044820152623b32b960e91b606482015260840161069c565b6000818152609d60205260409020600201546001600160a01b0316331461085a5760405162461bcd60e51b815260040161069c906135e6565b600083116108c45760405162461bcd60e51b815260206004820152603160248201527f506c656467653a207472616e7366657220616d6f756e74206d7573742062652060448201527067726561746572207468616e207a65726f60781b606482015260840161069c565b6000818152609d60205260409020600501548311156109255760405162461bcd60e51b815260206004820152601c60248201527f506c656467653a206e6f742073756666696369656e742066756e647300000000604482015260640161069c565b6000818152609d6020526040812060060180546109c991906109469061352f565b80601f01602080910402602001604051908101604052809291908181526020018280546109729061352f565b80156109bf5780601f10610994576101008083540402835291602001916109bf565b820191906000526020600020905b8154815290600101906020018083116109a257829003601f168201915b5050505050611d9f565b6000838152609d60205260408120600501549192509081906109eb9087611e8e565b9150915081610a4b5760405162461bcd60e51b815260206004820152602660248201527f506c656467653a4661696c20746f207472616e736665722e7061796d656e742060448201526519985a5b195960d21b606482015260840161069c565b6000848152609d60209081526040808320600501849055609e825282208054600181018255908352918190208751610a8a939190910191880190612d4b565b506001609f6000610a9a886119b0565b81526020810191909152604001600020805460ff191691151591909117905580610adb576000848152609d60205260409020600701805460ff191660021790555b8251610af1906001600160a01b03168888611eb4565b83876001600160a01b0316609d600087815260200190815260200160002060020160009054906101000a90046001600160a01b03166001600160a01b03167fba683d94f8ab8e3fc39d318e64f0df170c51344d7e74222116640daaf61baf6b89609d60008a815260200190815260200160002060070160009054906101000a900460ff16609d60008b81526020019081526020016000206004016002018e8c604051610ba19594939291906136b6565b60405180910390a45050505050505050565b610bbb611d45565b6099805460ff19166001179055565b610bd2611d45565b60995460ff16610bf45760405162461bcd60e51b815260040161069c9061356a565b6001600160a01b038116610c1a5760405162461bcd60e51b815260040161069c906136fe565b6001600160a01b038116600090815260a0602052604090206002015460ff16610c555760405162461bcd60e51b815260040161069c90613735565b6001600160a01b03818116600090815260a06020526040908190206002808201805461010061ff0019821681179283905584549551939660ff9283169616947f0d0fdbe5abe58aa6e1f895af84c9940e0f1c6605159211092e73982e8cc4218e94610ccd94600190920193929091049091169061376c565b60405180910390a450565b6000610ce3826119b0565b60995490915060ff16610d085760405162461bcd60e51b815260040161069c9061356a565b6000818152609d6020526040902054610d335760405162461bcd60e51b815260040161069c906135af565b6000818152609d60205260409020600201546001600160a01b03163314610da85760405162461bcd60e51b815260206004820152602360248201527f506c656467653a204e6f7420746865206f776e6572206f662074686520626f756044820152626e747960e81b606482015260840161069c565b6000818152609d6020526040902060010154421015610e135760405162461bcd60e51b815260206004820152602160248201527f506c656467653a205761697420666f722074686520657870697265642074696d6044820152606560f81b606482015260840161069c565b6000818152609d6020526040902060050154610e715760405162461bcd60e51b815260206004820152601c60248201527f506c656467653a206e6f742073756666696369656e742066756e647300000000604482015260640161069c565b6000818152609d602052604081206006018054610e9291906109469061352f565b6000838152609d6020526040812060058101805492905560078101805460ff191660031790556002015482519293509091610eda916001600160a01b03918216911683611eb4565b6000838152609d602052604090819020600781015491518392869233927f7049445bd308cc9c764c5d6a197d251dd2b1ff724ab13a8d51b17fb4c44eab9292610f309260ff909116916006909101908b90613790565b60405180910390a450505050565b60408051608081018252600080825260606020830181905292820181905291810191909152610f6c82611ee9565b92915050565b60408051608081018252600080825260606020830181905292820181905291810182905290610fa083611ff1565b90506000816040015160ff1611610f6c5760405162461bcd60e51b815260040161069c90613735565b610fd1612dcf565b610f6c8261207d565b6000610fe58361207d565b9050610ff360995460ff1690565b61100f5760405162461bcd60e51b815260040161069c9061356a565b600082116110585760405162461bcd60e51b8152602060048201526016602482015275141b195919d94e881a5b9d985b1a59081c995dd85c9960521b604482015260640161069c565b80516110765760405162461bcd60e51b815260040161069c906135af565b8060c0015160ff166001146110c85760405162461bcd60e51b8152602060048201526018602482015277283632b3b29d3a3432903137bab73a3c9034b99037bb32b960411b604482015260640161069c565b60408101516001600160a01b031633146110f45760405162461bcd60e51b815260040161069c906135e6565b60a08101515182116111545760405162461bcd60e51b815260206004820152602360248201527f506c656467653a20696e76616c6964207265776172642c6e65656420677265616044820152623a32b960e91b606482015260840161069c565b600080611169848460a0015160000151611e8e565b91509150816111ba5760405162461bcd60e51b815260206004820152601d60248201527f506c656467653a4661696c20746f20617070726f766520726577617264000000604482015260640161069c565b60006111cd8460a0015160400151611d9f565b80519091506111e5906001600160a01b03168361224c565b5060a0840180518690525160200180518391906112039083906137de565b90525061120f8461242b565b5060028561122086608001516119b0565b7fa72c7c8e95772f2f7475676eb66dbb0a320aa2fb673e207fc37f049705003d4f8760a00151604001518860c001518960800151604051611263939291906137f6565b60405180910390a4505050505050565b61127b611d45565b60995460ff1661129d5760405162461bcd60e51b815260040161069c9061356a565b6001600160a01b0381166112c35760405162461bcd60e51b815260040161069c906136fe565b6001600160a01b038116600090815260a0602052604090206002015460ff166112fe5760405162461bcd60e51b815260040161069c90613735565b6001600160a01b03808216600090815260a06020526040908190206002808201805461ff001981169182905583549451929560ff9182169516937f0d0fdbe5abe58aa6e1f895af84c9940e0f1c6605159211092e73982e8cc4218e93610ccd936001909201926101009092049091169061376c565b61137b611d45565b6113856000612509565b565b6000806040518060c001604052808981526020018881526020018760ff1681526020018681526020018581526020018481525090506113c5816113d1565b98975050505050505050565b6000806113e183606001516119b0565b60995490915060ff166114065760405162461bcd60e51b815260040161069c9061356a565b6000818152609d60205260409020546001116114645760405162461bcd60e51b815260206004820152601e60248201527f506c656467653a20657869737473207468652073616d6520626f756e74790000604482015260640161069c565b60006114738460a00151611d9f565b905060008460800151116114e55760405162461bcd60e51b815260206004820152603360248201527f506c656467653a2067756172616e7465652066756e64732073686f756c642062604482015272652067726561746572207468616e207a65726f60681b606482015260840161069c565b602084015184511080156114fc5750428460200151115b6115485760405162461bcd60e51b815260206004820152601d60248201527f506c656467653a20696e76616c6964206475726174696f6e2074696d65000000604482015260640161069c565b60006115538561255b565b6000848152609d60209081526040918290208351815581840151600182015591830151600283018054606086015160ff16600160a01b026001600160a81b03199091166001600160a01b03909316929092179190911790556080830151805193945084936115c79260038501920190612d4b565b5060a08201518051600483019081556020808301516005850155604083015180516115f89260068701920190612d4b565b50505060c091909101516007909101805460ff191660ff90921691909117905560808501518251611634916001600160a01b039091169061224c565b508060a00151600001518382604001516001600160a01b03167fd03d4a3a7acae67e86c3f69ea94589cf77eaaaa8cd68a5d8767454bdfaccd1738460000151856020015186606001518760c001518860a001516040015189608001516040516116a296959493929190613824565b60405180910390a450909392505050565b6060609e60006116c2846119b0565b8152602001908152602001600020805480602002602001604051908101604052809291908181526020016000905b8282101561179c57838290600052602060002001805461170f9061352f565b80601f016020809104026020016040519081016040528092919081815260200182805461173b9061352f565b80156117885780601f1061175d57610100808354040283529160200191611788565b820191906000526020600020905b81548152906001019060200180831161176b57829003601f168201915b5050505050815260200190600101906116f0565b505050509050919050565b6060609b80546105d59061352f565b60006117c18361207d565b90506117cf60995460ff1690565b6117eb5760405162461bcd60e51b815260040161069c9061356a565b600082116118345760405162461bcd60e51b8152602060048201526016602482015275141b195919d94e881a5b9d985b1a59081c995dd85c9960521b604482015260640161069c565b80516118525760405162461bcd60e51b815260040161069c906135af565b8060c0015160ff166001146118a45760405162461bcd60e51b8152602060048201526018602482015277283632b3b29d3a3432903137bab73a3c9034b99037bb32b960411b604482015260640161069c565b60408101516001600160a01b031633146118d05760405162461bcd60e51b815260040161069c906135e6565b60006118e38260a0015160400151611d9f565b80519091506118fb906001600160a01b03168461224c565b506000806119118460a0015160000151866125ce565b91509150816119625760405162461bcd60e51b815260206004820152601e60248201527f506c656467653a4661696c20746f20696e637265617365207265776172640000604482015260640161069c565b60a08401805182905251602001805186919061197f9083906137de565b90525061198b8461242b565b5060018561122086608001516119b0565b6119a4611d45565b6119ad816125f5565b50565b6000816040516020016119c39190613874565b604051602081830303815290604052805190602001209050919050565b6119e8611d45565b6119ad8161260c565b600054610100900460ff1615808015611a115750600054600160ff909116105b80611a2b5750303b158015611a2b575060005460ff166001145b611a8e5760405162461bcd60e51b815260206004820152602e60248201527f496e697469616c697a61626c653a20636f6e747261637420697320616c72656160448201526d191e481a5b9a5d1a585b1a5e995960921b606482015260840161069c565b6000805460ff191660011790558015611ab1576000805461ff0019166101001790555b611ac08888888888888861261f565b611ac86126ad565b611b2088888080601f016020809104026020016040519081016040528093929190818152602001838380828437600092019190915250506040805180820190915260018152603160f81b602082015291506126dc9050565b8015611b66576000805461ff0019169055604051600181527f7f26b83ff96e1f2b6a682f133852f6798a09c465da95921460cefb38474024989060200160405180910390a15b5050505050505050565b611b78611d45565b6000609d6000611b87856119b0565b81526020019081526020016000206000015411611bda5760405162461bcd60e51b8152602060048201526011602482015270506c656467653a6e6f742065786973747360781b604482015260640161069c565b80609d6000611be8856119b0565b81526020810191909152604001600020600101555050565b611c08611d45565b6001600160a01b038116611c6d5760405162461bcd60e51b815260206004820152602660248201527f4f776e61626c653a206e6577206f776e657220697320746865207a65726f206160448201526564647265737360d01b606482015260840161069c565b6119ad81612509565b611c7e611d45565b60995460ff16611ca05760405162461bcd60e51b815260040161069c9061356a565b6001600160a01b038216611cc65760405162461bcd60e51b815260040161069c906136fe565b6001600160a01b038216600090815260a06020526040902060020154600160ff90911610611d365760405162461bcd60e51b815260206004820152601f60248201527f506c656467653a2045786973747320737570706f727465642061737365742000604482015260640161069c565b611d40828261270d565b505050565b6067546001600160a01b031633146113855760405162461bcd60e51b815260206004820181905260248201527f4f776e61626c653a2063616c6c6572206973206e6f7420746865206f776e6572604482015260640161069c565b60408051608081018252600080825260606020830181905292820181905291810182905290611dcd83611ff1565b90506000816040015160ff1611611e3d5760405162461bcd60e51b815260206004820152602e60248201527f506c656467653a204e6f7420737570706f727420746865206173736574206f7260448201526d081a5b9d985b1a5908185cdcd95d60921b606482015260840161069c565b8060600151610f6c5760405162461bcd60e51b815260206004820152601d60248201527f506c656467653a205468652061737365742069732064697361626c6564000000604482015260640161069c565b60008083831115611ea457506000905080611ead565b50600190508183035b9250929050565b6001600160a01b038316611ed557611d406001600160a01b038316826128c1565b611d406001600160a01b03841683836129da565b60408051608080820183526000808352606060208085018290528486018390529084018290526001600160a01b03868116835260a08252918590208551938401909552845490911682526001840180549394929391840191611f4a9061352f565b80601f0160208091040260200160405190810160405280929190818152602001828054611f769061352f565b8015611fc35780601f10611f9857610100808354040283529160200191611fc3565b820191906000526020600020905b815481529060010190602001808311611fa657829003601f168201915b50505091835250506002919091015460ff808216602084015261010090910416151560409091015292915050565b6040805160808101825260008082526060602083018190529282018190529181019190915260a0600060a16000612027866119b0565b815260208082019290925260409081016000908120546001600160a01b039081168552848401959095529281019092208251608081019093528054909316825260018301805492939291840191611f4a9061352f565b612085612dcf565b6000612090836119b0565b6000818152609d6020908152604091829020825160e0810184528154815260018201549281019290925260028101546001600160a01b03811693830193909352600160a01b90920460ff16606082015260038201805493945090926080840191906120fa9061352f565b80601f01602080910402602001604051908101604052809291908181526020018280546121269061352f565b80156121735780601f1061214857610100808354040283529160200191612173565b820191906000526020600020905b81548152906001019060200180831161215657829003601f168201915b505050505081526020016004820160405180606001604052908160008201548152602001600182015481526020016002820180546121b09061352f565b80601f01602080910402602001604051908101604052809291908181526020018280546121dc9061352f565b80156122295780601f106121fe57610100808354040283529160200191612229565b820191906000526020600020905b81548152906001019060200180831161220c57829003601f168201915b5050509190925250505081526007919091015460ff166020909101529392505050565b60006001600160a01b0383166122ac57813410156040518060400160405280600381526020016224a6ab60e91b8152509061229a5760405162461bcd60e51b815260040161069c9190612f1b565b506122a58234613890565b9050610f6c565b6040516370a0823160e01b81523060048201526000906001600160a01b038516906370a0823190602401602060405180830381865afa1580156122f3573d6000803e3d6000fd5b505050506040513d601f19601f8201168201806040525081019061231791906138a7565b905061232e6001600160a01b038516333086612a3d565b6040516370a0823160e01b815230600482015260009081906123a5906001600160a01b038816906370a0823190602401602060405180830381865afa15801561237b573d6000803e3d6000fd5b505050506040513d601f19601f8201168201806040525081019061239f91906138a7565b84611e8e565b91509150816040518060400160405280600381526020016249524160e81b815250906123e45760405162461bcd60e51b815260040161069c9190612f1b565b5060408051808201909152600381526249524160e81b602082015281861461241f5760405162461bcd60e51b815260040161069c9190612f1b565b50349695505050505050565b60008061243b83608001516119b0565b6000818152609d60209081526040918290208651815581870151600182015591860151600283018054606089015160ff16600160a01b026001600160a81b03199091166001600160a01b03909316929092179190911790556080860151805193945086936124af9260038501920190612d4b565b5060a08201518051600483019081556020808301516005850155604083015180516124e09260068701920190612d4b565b50505060c091909101516007909101805460ff191660ff90921691909117905550600192915050565b606780546001600160a01b038381166001600160a01b0319831681179093556040519116919082907f8be0079c531659141344cd1fd0a4f28419497f9722a3daafe3b4186f6b6457e090600090a35050565b612563612dcf565b506040805160e081018252825181526020808401518183015233828401528383015160ff166060808401919091528085015160808085019190915284519182018552850180518252519181019190915260a0938401519281019290925291820152600160c082015290565b600080838301848110156125e9576000809250925050611ead565b60019590945092505050565b805161260890609b906020840190612d4b565b5050565b805161260890609a906020840190612d4b565b600054610100900460ff166126465760405162461bcd60e51b815260040161069c906138c0565b6099805460ff1916600117905561265f609a8888612e3a565b5061266c609b8686612e3a565b50611b668383838080601f01602080910402602001604051908101604052809392919081815260200183838082843760009201919091525061270d92505050565b600054610100900460ff166126d45760405162461bcd60e51b815260040161069c906138c0565b611385612a7b565b600054610100900460ff166127035760405162461bcd60e51b815260040161069c906138c0565b6126088282612aab565b60408051608081018252600080825260606020830181905292820181905291810191909152612740609c80546001019055565b600061274b609c5490565b604080516080810182526001600160a01b03878116808352602080840189815260ff871685870152600160608601819052600093845260a0835295909220845181546001600160a01b0319169416939093178355905180519596509294859492936127ba938501920190612d4b565b5060408201516002909101805460609093015115156101000261ffff1990931660ff909216919091179190911790558460a160006127f7876119b0565b81526020808201929092526040908101600090812080546001600160a01b03199081166001600160a01b039687161790915560a2805460018181018355919093527faaf4f58de99300cfadc4585755f376d5fa747d5bc561d5bd9d710de1f91bf42d90920180549091168a86161790558482015185519386015160608701519351929560ff90921694909116927f0d0fdbe5abe58aa6e1f895af84c9940e0f1c6605159211092e73982e8cc4218e926128b192919061390b565b60405180910390a4949350505050565b804710156129115760405162461bcd60e51b815260206004820152601d60248201527f416464726573733a20696e73756666696369656e742062616c616e6365000000604482015260640161069c565b6000826001600160a01b03168260405160006040518083038185875af1925050503d806000811461295e576040519150601f19603f3d011682016040523d82523d6000602084013e612963565b606091505b5050905080611d405760405162461bcd60e51b815260206004820152603a60248201527f416464726573733a20756e61626c6520746f2073656e642076616c75652c207260448201527f6563697069656e74206d61792068617665207265766572746564000000000000606482015260840161069c565b6040516001600160a01b038316602482015260448101829052611d4090849063a9059cbb60e01b906064015b60408051601f198184030181529190526020810180516001600160e01b03166001600160e01b031990931692909217909152612aec565b6040516001600160a01b0380851660248301528316604482015260648101829052612a759085906323b872dd60e01b90608401612a06565b50505050565b600054610100900460ff16612aa25760405162461bcd60e51b815260040161069c906138c0565b61138533612509565b600054610100900460ff16612ad25760405162461bcd60e51b815260040161069c906138c0565b815160209283012081519190920120600191909155600255565b6000612b41826040518060400160405280602081526020017f5361666545524332303a206c6f772d6c6576656c2063616c6c206661696c6564815250856001600160a01b0316612bbe9092919063ffffffff16565b805190915015611d405780806020019051810190612b5f919061391e565b611d405760405162461bcd60e51b815260206004820152602a60248201527f5361666545524332303a204552433230206f7065726174696f6e20646964206e6044820152691bdd081cdd58d8d9595960b21b606482015260840161069c565b6060612bcd8484600085612bd5565b949350505050565b606082471015612c365760405162461bcd60e51b815260206004820152602660248201527f416464726573733a20696e73756666696369656e742062616c616e636520666f6044820152651c8818d85b1b60d21b606482015260840161069c565b600080866001600160a01b03168587604051612c529190613874565b60006040518083038185875af1925050503d8060008114612c8f576040519150601f19603f3d011682016040523d82523d6000602084013e612c94565b606091505b5091509150612ca587838387612cb0565b979650505050505050565b60608315612d1c578251612d15576001600160a01b0385163b612d155760405162461bcd60e51b815260206004820152601d60248201527f416464726573733a2063616c6c20746f206e6f6e2d636f6e7472616374000000604482015260640161069c565b5081612bcd565b612bcd8383815115612d315781518083602001fd5b8060405162461bcd60e51b815260040161069c9190612f1b565b828054612d579061352f565b90600052602060002090601f016020900481019282612d795760008555612dbf565b82601f10612d9257805160ff1916838001178555612dbf565b82800160010185558215612dbf579182015b82811115612dbf578251825591602001919060010190612da4565b50612dcb929150612eae565b5090565b6040518060e00160405280600081526020016000815260200160006001600160a01b03168152602001600060ff16815260200160608152602001612e2d60405180606001604052806000815260200160008152602001606081525090565b8152600060209091015290565b828054612e469061352f565b90600052602060002090601f016020900481019282612e685760008555612dbf565b82601f10612e815782800160ff19823516178555612dbf565b82800160010185558215612dbf579182015b82811115612dbf578235825591602001919060010190612e93565b5b80821115612dcb5760008155600101612eaf565b60005b83811015612ede578181015183820152602001612ec6565b83811115612a755750506000910152565b60008151808452612f07816020860160208601612ec3565b601f01601f19169290920160200192915050565b602081526000612f2e6020830184612eef565b9392505050565b634e487b7160e01b600052604160045260246000fd5b60405160c0810167ffffffffffffffff81118282101715612f6e57612f6e612f35565b60405290565b600082601f830112612f8557600080fd5b813567ffffffffffffffff80821115612fa057612fa0612f35565b604051601f8301601f19908116603f01168101908282118183101715612fc857612fc8612f35565b81604052838152866020858801011115612fe157600080fd5b836020870160208301376000602085830101528094505050505092915050565b80356001600160a01b038116811461301857600080fd5b919050565b6000806000806080858703121561303357600080fd5b843567ffffffffffffffff8082111561304b57600080fd5b61305788838901612f74565b955061306560208801613001565b945060408701359350606087013591508082111561308257600080fd5b5061308f87828801612f74565b91505092959194509250565b6000602082840312156130ad57600080fd5b612f2e82613001565b6000602082840312156130c857600080fd5b813567ffffffffffffffff8111156130df57600080fd5b612bcd84828501612f74565b602080825282516001600160a01b0316828201528201516080604083015260009061311960a0840182612eef565b905060ff60408501511660608401526060840151151560808401528091505092915050565b60208152815160208201526020820151604082015260018060a01b03604083015116606082015260ff60608301511660808201526000608083015160e060a084015261318e610100840182612eef565b905060a0840151601f198483030160c0850152805182526020810151602083015260408101519050606060408301526131ca6060830182612eef565b91505060c08401516131e160e085018260ff169052565b509392505050565b600080604083850312156131fc57600080fd5b823567ffffffffffffffff81111561321357600080fd5b61321f85828601612f74565b95602094909401359450505050565b803560ff8116811461301857600080fd5b60008060008060008060c0878903121561325857600080fd5b863595506020870135945061326f6040880161322e565b9350606087013567ffffffffffffffff8082111561328c57600080fd5b6132988a838b01612f74565b94506080890135935060a08901359150808211156132b557600080fd5b506132c289828a01612f74565b9150509295509295509295565b6000602082840312156132e157600080fd5b813567ffffffffffffffff808211156132f957600080fd5b9083019060c0828603121561330d57600080fd5b613315612f4b565b823581526020830135602082015261332f6040840161322e565b604082015260608301358281111561334657600080fd5b61335287828601612f74565b6060830152506080830135608082015260a08301358281111561337457600080fd5b61338087828601612f74565b60a08301525095945050505050565b6000602080830181845280855180835260408601915060408160051b870101925083870160005b828110156133e457603f198886030184526133d2858351612eef565b945092850192908501906001016133b6565b5092979650505050505050565b60008083601f84011261340357600080fd5b50813567ffffffffffffffff81111561341b57600080fd5b602083019150836020828501011115611ead57600080fd5b60008060008060008060006080888a03121561344e57600080fd5b873567ffffffffffffffff8082111561346657600080fd5b6134728b838c016133f1565b909950975060208a013591508082111561348b57600080fd5b6134978b838c016133f1565b90975095508591506134ab60408b01613001565b945060608a01359150808211156134c157600080fd5b506134ce8a828b016133f1565b989b979a50959850939692959293505050565b600080604083850312156134f457600080fd5b6134fd83613001565b9150602083013567ffffffffffffffff81111561351957600080fd5b61352585828601612f74565b9150509250929050565b600181811c9082168061354357607f821691505b6020821081141561356457634e487b7160e01b600052602260045260246000fd5b50919050565b60208082526025908201527f506c656467653a207761697420666f72207468652073797374656d207265636f60408201526403b32b93c960dd1b606082015260800190565b60208082526018908201527f506c656467653a20626f756e7479206e6f7420666f756e640000000000000000604082015260600190565b602080825260169082015275283632b233b29d103737ba103a34329037bbb732b91760511b604082015260600190565b8054600090600181811c908083168061363057607f831692505b602080841082141561365257634e487b7160e01b600052602260045260246000fd5b8388526020880182801561366d576001811461367e576136a9565b60ff198716825282820197506136a9565b60008981526020902060005b878110156136a35781548482015290860190840161368a565b83019850505b5050505050505092915050565b85815260ff8516602082015260a0604082015260006136d860a0830186613616565b82810360608401526136ea8186612eef565b905082810360808401526113c58185612eef565b6020808252601d908201527f506c656467653a4e6f7420737570706f7274205a65726f206173736574000000604082015260600190565b6020808252601b908201527f506c656467653a204e6f7420666f756e64207468652061737365740000000000604082015260600190565b60408152600061377f6040830185613616565b905082151560208301529392505050565b60ff841681526060602082015260006137ac6060830185613616565b82810360408401526137be8185612eef565b9695505050505050565b634e487b7160e01b600052601160045260246000fd5b600082198211156137f1576137f16137c8565b500190565b6060815260006138096060830186612eef565b60ff8516602084015282810360408401526137be8185612eef565b86815285602082015260ff8516604082015260ff8416606082015260c06080820152600061385560c0830185612eef565b82810360a08401526138678185612eef565b9998505050505050505050565b60008251613886818460208701612ec3565b9190910192915050565b6000828210156138a2576138a26137c8565b500390565b6000602082840312156138b957600080fd5b5051919050565b6020808252602b908201527f496e697469616c697a61626c653a20636f6e7472616374206973206e6f74206960408201526a6e697469616c697a696e6760a81b606082015260800190565b60408152600061377f6040830185612eef565b60006020828403121561393057600080fd5b81518015158114612f2e57600080fdfea264697066735822122084941257ab5af34eacb211594785d5bc4612e79821275fd0ebaedd5fcf9476c164736f6c634300080a0033",
  "immutableReferences": {},
  "source": "// SPDX-License-Identifier: MIT\npragma solidity >=0.4.22 <0.9.0;\n\nimport \"./libraries/BountyPledgeDataUpgradeable.sol\";\nimport \"./BountyPledge.sol\";\n\n/**\n * reddit execute\n * https://polygonscan.com/address/0xab7a446621a2159fbff600276963a4113e7c6cfa#code\n */\n\ncontract BountyPledgeV2 is BountyPledge {\n    using Transfers for address;\n    event RewardActivity(\n        bytes32 indexed keccak256CID, //keccak256(cid)\n        uint256 indexed reward,\n        string rewardUnit,\n        uint8 indexed model, //1=2=\n        uint8 status,\n        string cid\n    );\n\n    function increaseReward(string memory cid, uint256 amount) external virtual {\n        BountyPledgeDataUpgradeable.Bounty memory bounty = _getBounty(cid);\n        require(getWorldStatus(),\"Pledge: wait for the system recovery \");\n        require(amount > 0, \"Pledge: invalid reward\");\n        require(bounty.startTime > 0, \"Pledge: bounty not found\");\n        //bytes memory a = abi.encodePacked(\"Plege:the bounty is over.\",StringsUpgradeable.toString(_bounties[bountyId].status));\n        require(bounty.status == 1, \"Plege:the bounty is over\");\n        require(bounty.owner == _msgSender(), \"Pledge: not the owner.\");\n\n       BountyPledgeDataUpgradeable. AssetCoin memory assetCoin = _checkSupportedAsset(bounty.reward.unit);\n        assetCoin.asset.transferIn(amount);\n\n        (bool isSuccess, uint256 newAmount) = SafeMathUpgradeable.tryAdd(\n            bounty.reward.amount,\n            amount\n        );\n        require(isSuccess, \"Pledge:Fail to increase reward\");\n        bounty.reward.amount = newAmount;\n        bounty.reward.balance += amount; //\n\n        _updateBounty(bounty);\n        emit RewardActivity(\n            getkeccak256(bounty.cid),\n            amount,\n            bounty.reward.unit,\n            1, //1=2=\n            bounty.status,\n            bounty.cid\n        );\n    }\n\n    function approveReward(string memory cid, uint256 amount) external virtual{\n        BountyPledgeDataUpgradeable.Bounty memory bounty = _getBounty(cid);\n        require(getWorldStatus(),\"Pledge: wait for the system recovery \");\n        require(amount > 0, \"Pledge: invalid reward\");\n        require(bounty.startTime > 0, \"Pledge: bounty not found\");\n        require(bounty.status == 1, \"Plege:the bounty is over\");\n        require(bounty.owner == _msgSender(), \"Pledge: not the owner.\");\n        require(\n            bounty.reward.amount < amount,\n            \"Pledge: invalid reward,need greater\"\n        );\n\n        //uint256 balance = amount - bounty.reward.amount; // \n        (bool isSuccess, uint256 newBalance) = SafeMathUpgradeable.trySub(\n            amount,\n            bounty.reward.amount\n        );\n        require(isSuccess, \"Pledge:Fail to approve reward\");\n\n        BountyPledgeDataUpgradeable.AssetCoin memory assetCoin = _checkSupportedAsset(bounty.reward.unit);\n        assetCoin.asset.transferIn(newBalance);\n\n        bounty.reward.amount = amount;\n        bounty.reward.balance += newBalance; //\n\n        _updateBounty(bounty);\n        emit RewardActivity(\n            getkeccak256(bounty.cid),\n            amount,\n            bounty.reward.unit,\n            2, //1=2=\n            bounty.status,\n            bounty.cid\n        );\n    }\n}\n",
  "sourcePath": "/Users/xcdong/resource/project/Ethereum/dxch/chain-contracts/kugga-usdk/contracts/BountyPledgeV2.sol",
  "compiler": {
    "name": "solc",
    "version": "0.8.10+commit.fc410830.Emscripten.clang"
  },
  "schemaVersion": "3.4.7",
  "updatedAt": "2023-04-05T03:43:28.258Z",
  "networkType": "ethereum",
  "devdoc": {
    "kind": "dev",
    "methods": {
      "owner()": {
        "details": "Returns the address of the current owner."
      },
      "renounceOwnership()": {
        "details": "Leaves the contract without owner. It will not be possible to call `onlyOwner` functions anymore. Can only be called by the current owner. NOTE: Renouncing ownership will leave the contract without an owner, thereby removing any functionality that is only available to the owner."
      },
      "transferOwnership(address)": {
        "details": "Transfers ownership of the contract to a new account (`newOwner`). Can only be called by the current owner."
      }
    },
    "version": 1
  },
  "userdoc": {
    "kind": "user",
    "methods": {
      "pledge((uint256,uint256,uint8,string,uint256,string))": {
        "notice": " usdt approve "
      },
      "pledge2(uint256,uint256,uint8,string,uint256,string)": {
        "notice": " usdt approve "
      },
      "transfer(string,address,uint256,string)": {
        "notice": ": "
      },
      "withdraw(string)": {
        "notice": " 1bounty owner  2 3"
      }
    },
    "notice": "reddit execute https://polygonscan.com/address/0xab7a446621a2159fbff600276963a4113e7c6cfa#code",
    "version": 1
  }
}