{
  "contractName": "ChainConstants",
  "abi": [
    {
      "inputs": [],
      "name": "CHILD_CHAIN_ID",
      "outputs": [
        {
          "internalType": "uint256",
          "name": "",
          "type": "uint256"
        }
      ],
      "stateMutability": "view",
      "type": "function"
    },
    {
      "inputs": [],
      "name": "CHILD_CHAIN_ID_BYTES",
      "outputs": [
        {
          "internalType": "bytes",
          "name": "",
          "type": "bytes"
        }
      ],
      "stateMutability": "view",
      "type": "function"
    },
    {
      "inputs": [],
      "name": "ERC712_VERSION",
      "outputs": [
        {
          "internalType": "string",
          "name": "",
          "type": "string"
        }
      ],
      "stateMutability": "view",
      "type": "function"
    },
    {
      "inputs": [],
      "name": "ROOT_CHAIN_ID",
      "outputs": [
        {
          "internalType": "uint256",
          "name": "",
          "type": "uint256"
        }
      ],
      "stateMutability": "view",
      "type": "function"
    },
    {
      "inputs": [],
      "name": "ROOT_CHAIN_ID_BYTES",
      "outputs": [
        {
          "internalType": "bytes",
          "name": "",
          "type": "bytes"
        }
      ],
      "stateMutability": "view",
      "type": "function"
    }
  ],
  "bytecode": "0x608060405234801561001057600080fd5b5061018d806100206000396000f3fe608060405234801561001057600080fd5b50600436106100575760003560e01c80630b54817c1461005c5780630dd7531a146100925780630f7e5970146100b2578063626381a0146100d25780638acfcaf7146100e8575b600080fd5b61007c604051806040016040528060018152602001608960f81b81525081565b604051610089919061013d565b60405180910390f35b61007c604051806040016040528060018152602001600160f81b81525081565b61007c604051806040016040528060018152602001603160f81b81525081565b6100da608981565b604051908152602001610089565b6100da600181565b6000815180845260005b81811015610116576020818501810151868301820152016100fa565b81811115610128576000602083870101525b50601f01601f19169290920160200192915050565b60208152600061015060208301846100f0565b939250505056fea2646970667358221220dd69c2ef28b32f2b4f8a0ce050f0069d12a64c8cb317bff00d22d3d42dbbb30964736f6c634300080a0033",
  "immutableReferences": {},
  "source": "// SPDX-License-Identifier: MIT\npragma solidity >=0.4.22 <0.9.0;\n\n\ncontract ChainConstants {\n    string constant public ERC712_VERSION = \"1\";\n\n    uint256 constant public ROOT_CHAIN_ID = 1;\n    bytes constant public ROOT_CHAIN_ID_BYTES = hex\"01\";\n\n    uint256 constant public CHILD_CHAIN_ID = 137;\n    bytes constant public CHILD_CHAIN_ID_BYTES = hex\"89\";\n}\n\n",
  "sourcePath": "/Users/xcdong/resource/project/Ethereum/dxch/chain-contracts/kugga-usdk/contracts/ChainConstants.sol",
  "compiler": {
    "name": "solc",
    "version": "0.8.10+commit.fc410830.Emscripten.clang"
  },
  "schemaVersion": "3.4.7",
  "updatedAt": "2023-04-05T03:18:20.237Z",
  "devdoc": {
    "kind": "dev",
    "methods": {},
    "version": 1
  },
  "userdoc": {
    "kind": "user",
    "methods": {},
    "version": 1
  }
}