{
  "contractName": "Migrations",
  "abi": [
    {
      "inputs": [],
      "name": "last_completed_migration",
      "outputs": [
        {
          "internalType": "uint256",
          "name": "",
          "type": "uint256"
        }
      ],
      "stateMutability": "view",
      "type": "function"
    },
    {
      "inputs": [],
      "name": "owner",
      "outputs": [
        {
          "internalType": "address",
          "name": "",
          "type": "address"
        }
      ],
      "stateMutability": "view",
      "type": "function"
    },
    {
      "inputs": [
        {
          "internalType": "uint256",
          "name": "completed",
          "type": "uint256"
        }
      ],
      "name": "setCompleted",
      "outputs": [],
      "stateMutability": "nonpayable",
      "type": "function"
    },
    {
      "inputs": [
        {
          "internalType": "address",
          "name": "newOwner",
          "type": "address"
        }
      ],
      "name": "transferOwnership",
      "outputs": [],
      "stateMutability": "nonpayable",
      "type": "function"
    }
  ],
  "bytecode": "0x6080604052600080546001600160a01b0319163317905534801561002257600080fd5b50610216806100326000396000f3fe608060405234801561001057600080fd5b506004361061004c5760003560e01c8063445df0ac146100515780638da5cb5b1461006d578063f2fde38b14610098578063fdacd576146100ad575b600080fd5b61005a60015481565b6040519081526020015b60405180910390f35b600054610080906001600160a01b031681565b6040516001600160a01b039091168152602001610064565b6100ab6100a6366004610144565b6100c0565b005b6100ab6100bb366004610174565b610115565b6000546001600160a01b031633146100f35760405162461bcd60e51b81526004016100ea9061018d565b60405180910390fd5b600080546001600160a01b0319166001600160a01b0392909216919091179055565b6000546001600160a01b0316331461013f5760405162461bcd60e51b81526004016100ea9061018d565b600155565b60006020828403121561015657600080fd5b81356001600160a01b038116811461016d57600080fd5b9392505050565b60006020828403121561018657600080fd5b5035919050565b60208082526033908201527f546869732066756e6374696f6e206973207265737472696374656420746f207460408201527234329031b7b73a3930b1ba13b99037bbb732b960691b60608201526080019056fea2646970667358221220f331084ab1a11f9cf06ecbb5999ddf60f4f394a3023931181c86f5c49afdd12664736f6c634300080a0033",
  "immutableReferences": {},
  "source": "// SPDX-License-Identifier: MIT\npragma solidity >=0.4.22 <0.9.0;\n\ncontract Migrations {\n  address public owner = msg.sender;\n  uint public last_completed_migration;\n\n  modifier restricted() {\n    require(\n      msg.sender == owner,\n      \"This function is restricted to the contract's owner\"\n    );\n    _;\n  }\n\n  function setCompleted(uint completed) public restricted {\n    last_completed_migration = completed;\n  }\n\n  function transferOwnership(address newOwner) public restricted{\n      owner=newOwner;\n  }\n\n}\n",
  "sourcePath": "/Users/xcdong/resource/project/Ethereum/dxch/chain-contracts/kugga-usdk/contracts/Migrations.sol",
  "compiler": {
    "name": "solc",
    "version": "0.8.10+commit.fc410830.Emscripten.clang"
  },
  "schemaVersion": "3.4.7",
  "updatedAt": "2023-04-05T03:18:20.248Z",
  "devdoc": {
    "kind": "dev",
    "methods": {},
    "version": 1
  },
  "userdoc": {
    "kind": "user",
    "methods": {},
    "version": 1
  }
}