{
  "contractName": "NativeMetaTransactionUpgradeable",
  "abi": [
    {
      "anonymous": false,
      "inputs": [
        {
          "indexed": false,
          "internalType": "uint8",
          "name": "version",
          "type": "uint8"
        }
      ],
      "name": "Initialized",
      "type": "event"
    },
    {
      "anonymous": false,
      "inputs": [
        {
          "indexed": false,
          "internalType": "address",
          "name": "userAddress",
          "type": "address"
        },
        {
          "indexed": false,
          "internalType": "address payable",
          "name": "relayerAddress",
          "type": "address"
        },
        {
          "indexed": false,
          "internalType": "bytes",
          "name": "functionSignature",
          "type": "bytes"
        }
      ],
      "name": "MetaTransactionExecuted",
      "type": "event"
    },
    {
      "inputs": [],
      "name": "getChainId",
      "outputs": [
        {
          "internalType": "uint256",
          "name": "",
          "type": "uint256"
        }
      ],
      "stateMutability": "view",
      "type": "function"
    },
    {
      "inputs": [],
      "name": "getDomainSeperator",
      "outputs": [
        {
          "internalType": "bytes32",
          "name": "",
          "type": "bytes32"
        }
      ],
      "stateMutability": "view",
      "type": "function"
    },
    {
      "inputs": [
        {
          "internalType": "address",
          "name": "userAddress",
          "type": "address"
        },
        {
          "internalType": "bytes",
          "name": "functionSignature",
          "type": "bytes"
        },
        {
          "internalType": "bytes32",
          "name": "sigR",
          "type": "bytes32"
        },
        {
          "internalType": "bytes32",
          "name": "sigS",
          "type": "bytes32"
        },
        {
          "internalType": "uint8",
          "name": "sigV",
          "type": "uint8"
        }
      ],
      "name": "executeMetaTransaction",
      "outputs": [
        {
          "internalType": "bytes",
          "name": "",
          "type": "bytes"
        }
      ],
      "stateMutability": "payable",
      "type": "function"
    },
    {
      "inputs": [
        {
          "internalType": "address",
          "name": "user",
          "type": "address"
        }
      ],
      "name": "getNonce",
      "outputs": [
        {
          "internalType": "uint256",
          "name": "nonce",
          "type": "uint256"
        }
      ],
      "stateMutability": "view",
      "type": "function"
    }
  ],
  "bytecode": "0x608060405234801561001057600080fd5b506107a1806100206000396000f3fe60806040526004361061003f5760003560e01c80630c53c51c1461004457806320379ee51461006d5780632d0335ab1461008c5780633408e470146100c2575b600080fd5b61005761005236600461050a565b6100d5565b604051610064919061064c565b60405180910390f35b34801561007957600080fd5b506001545b604051908152602001610064565b34801561009857600080fd5b5061007e6100a736600461065f565b6001600160a01b031660009081526002602052604090205490565b3480156100ce57600080fd5b504661007e565b60408051606081810183526001600160a01b0388166000818152600260209081529085902054845283015291810186905261011387828787876102c4565b61016e5760405162461bcd60e51b815260206004820152602160248201527f5369676e657220616e64207369676e617475726520646f206e6f74206d6174636044820152600d60fb1b60648201526084015b60405180910390fd5b6001600160a01b0387166000908152600260205260409020546101929060016103b4565b6001600160a01b0388166000908152600260205260409081902091909155517f5845892132946850460bff5a0083f71031bc5bf9aadcd40f1de79423eac9b10b906101e290899033908a9061067a565b60405180910390a1600080306001600160a01b0316888a60405160200161020a9291906106af565b60408051601f1981840301815290829052610224916106e6565b6000604051808303816000865af19150503d8060008114610261576040519150601f19603f3d011682016040523d82523d6000602084013e610266565b606091505b5091509150816102b85760405162461bcd60e51b815260206004820152601c60248201527f46756e6374696f6e2063616c6c206e6f74207375636365737366756c000000006044820152606401610165565b98975050505050505050565b60006001600160a01b03861661032a5760405162461bcd60e51b815260206004820152602560248201527f4e61746976654d6574615472616e73616374696f6e3a20494e56414c49445f5360448201526424a3a722a960d91b6064820152608401610165565b600161033d6103388761041a565b610497565b6040805160008152602081018083529290925260ff851690820152606081018690526080810185905260a0016020604051602081039080840390855afa15801561038b573d6000803e3d6000fd5b505050602060405103516001600160a01b0316866001600160a01b031614905095945050505050565b6000806103c18385610702565b9050838110156104135760405162461bcd60e51b815260206004820152601b60248201527f536166654d6174683a206164646974696f6e206f766572666c6f7700000000006044820152606401610165565b9392505050565b6000604051806080016040528060438152602001610729604391398051602091820120835184830151604080870151805190860120905161047a950193845260208401929092526001600160a01b03166040830152606082015260800190565b604051602081830303815290604052805190602001209050919050565b60006104a260015490565b60405161190160f01b602082015260228101919091526042810183905260620161047a565b80356001600160a01b03811681146104de57600080fd5b919050565b634e487b7160e01b600052604160045260246000fd5b803560ff811681146104de57600080fd5b600080600080600060a0868803121561052257600080fd5b61052b866104c7565b9450602086013567ffffffffffffffff8082111561054857600080fd5b818801915088601f83011261055c57600080fd5b81358181111561056e5761056e6104e3565b604051601f8201601f19908116603f01168101908382118183101715610596576105966104e3565b816040528281528b60208487010111156105af57600080fd5b82602086016020830137600060208483010152809850505050505060408601359250606086013591506105e4608087016104f9565b90509295509295909350565b60005b8381101561060b5781810151838201526020016105f3565b8381111561061a576000848401525b50505050565b600081518084526106388160208601602086016105f0565b601f01601f19169290920160200192915050565b6020815260006104136020830184610620565b60006020828403121561067157600080fd5b610413826104c7565b6001600160a01b038481168252831660208201526060604082018190526000906106a690830184610620565b95945050505050565b600083516106c18184602088016105f0565b60609390931b6bffffffffffffffffffffffff19169190920190815260140192915050565b600082516106f88184602087016105f0565b9190910192915050565b6000821982111561072357634e487b7160e01b600052601160045260246000fd5b50019056fe4d6574615472616e73616374696f6e2875696e74323536206e6f6e63652c616464726573732066726f6d2c62797465732066756e6374696f6e5369676e617475726529a2646970667358221220049012fe4d9b74594c28bb47d57483dd06b8900c8dfec39de8db679667be7d9664736f6c634300080a0033",
  "immutableReferences": {},
  "source": "// SPDX-License-Identifier: MIT\npragma solidity >=0.4.22 <0.9.0;\n\nimport \"./EIP712BaseUpgradeable.sol\";\nimport \"./SafeMath.sol\";\n\ncontract NativeMetaTransactionUpgradeable is EIP712BaseUpgradeable {\n    using SafeMath for uint256;\n    bytes32 private constant META_TRANSACTION_TYPEHASH = keccak256(\n        bytes(\n            \"MetaTransaction(uint256 nonce,address from,bytes functionSignature)\"\n        )\n    );\n    event MetaTransactionExecuted(\n        address userAddress,\n        address payable relayerAddress,\n        bytes functionSignature\n    );\n    mapping(address => uint256) nonces;\n\n    /*\n     * Meta transaction structure.\n     * No point of including value field here as if user is doing value transfer then he has the funds to pay for gas\n     * He should call the desired function directly in that case.\n     */\n    struct MetaTransaction {\n        uint256 nonce;\n        address from;\n        bytes functionSignature;\n    }\n\n    function executeMetaTransaction(\n        address userAddress,\n        bytes memory functionSignature,\n        bytes32 sigR,\n        bytes32 sigS,\n        uint8 sigV\n    ) public payable returns (bytes memory) {\n        MetaTransaction memory metaTx = MetaTransaction({\n            nonce: nonces[userAddress],\n            from: userAddress,\n            functionSignature: functionSignature\n        });\n\n        require(\n            verify(userAddress, metaTx, sigR, sigS, sigV),\n            \"Signer and signature do not match\"\n        );\n\n        // increase nonce for user (to avoid re-use)\n        nonces[userAddress] = nonces[userAddress].add(1);\n\n        emit MetaTransactionExecuted(\n            userAddress,\n            payable(msg.sender),\n            functionSignature\n        );\n\n        // Append userAddress and relayer address at the end to extract it from calling context\n        (bool success, bytes memory returnData) = address(this).call(\n            abi.encodePacked(functionSignature, userAddress)\n        );\n        require(success, \"Function call not successful\");\n\n        return returnData;\n    }\n\n    function hashMetaTransaction(MetaTransaction memory metaTx)\n        internal\n        pure\n        returns (bytes32)\n    {\n        return\n            keccak256(\n                abi.encode(\n                    META_TRANSACTION_TYPEHASH,\n                    metaTx.nonce,\n                    metaTx.from,\n                    keccak256(metaTx.functionSignature)\n                )\n            );\n    }\n\n    function getNonce(address user) public view returns (uint256 nonce) {\n        nonce = nonces[user];\n    }\n\n    function verify(\n        address signer,\n        MetaTransaction memory metaTx,\n        bytes32 sigR,\n        bytes32 sigS,\n        uint8 sigV\n    ) internal view returns (bool) {\n        require(signer != address(0), \"NativeMetaTransaction: INVALID_SIGNER\");\n        return\n            signer ==\n            ecrecover(\n                toTypedMessageHash(hashMetaTransaction(metaTx)),\n                sigV,\n                sigR,\n                sigS\n            );\n    }\n}",
  "sourcePath": "/Users/xcdong/resource/project/Ethereum/dxch/chain-contracts/kugga-usdk/contracts/NativeMetaTransactionUpgradeable.sol",
  "compiler": {
    "name": "solc",
    "version": "0.8.10+commit.fc410830.Emscripten.clang"
  },
  "schemaVersion": "3.4.7",
  "updatedAt": "2023-04-05T03:18:20.249Z",
  "devdoc": {
    "kind": "dev",
    "methods": {},
    "version": 1
  },
  "userdoc": {
    "kind": "user",
    "methods": {},
    "version": 1
  }
}