{
  "contractName": "UChildERC20Upgradeable",
  "abi": [
    {
      "anonymous": false,
      "inputs": [
        {
          "indexed": true,
          "internalType": "address",
          "name": "owner",
          "type": "address"
        },
        {
          "indexed": true,
          "internalType": "address",
          "name": "spender",
          "type": "address"
        },
        {
          "indexed": false,
          "internalType": "uint256",
          "name": "value",
          "type": "uint256"
        }
      ],
      "name": "Approval",
      "type": "event"
    },
    {
      "anonymous": false,
      "inputs": [
        {
          "indexed": false,
          "internalType": "uint8",
          "name": "version",
          "type": "uint8"
        }
      ],
      "name": "Initialized",
      "type": "event"
    },
    {
      "anonymous": false,
      "inputs": [
        {
          "indexed": false,
          "internalType": "address",
          "name": "userAddress",
          "type": "address"
        },
        {
          "indexed": false,
          "internalType": "address payable",
          "name": "relayerAddress",
          "type": "address"
        },
        {
          "indexed": false,
          "internalType": "bytes",
          "name": "functionSignature",
          "type": "bytes"
        }
      ],
      "name": "MetaTransactionExecuted",
      "type": "event"
    },
    {
      "anonymous": false,
      "inputs": [
        {
          "indexed": true,
          "internalType": "bytes32",
          "name": "role",
          "type": "bytes32"
        },
        {
          "indexed": true,
          "internalType": "bytes32",
          "name": "previousAdminRole",
          "type": "bytes32"
        },
        {
          "indexed": true,
          "internalType": "bytes32",
          "name": "newAdminRole",
          "type": "bytes32"
        }
      ],
      "name": "RoleAdminChanged",
      "type": "event"
    },
    {
      "anonymous": false,
      "inputs": [
        {
          "indexed": true,
          "internalType": "bytes32",
          "name": "role",
          "type": "bytes32"
        },
        {
          "indexed": true,
          "internalType": "address",
          "name": "account",
          "type": "address"
        },
        {
          "indexed": true,
          "internalType": "address",
          "name": "sender",
          "type": "address"
        }
      ],
      "name": "RoleGranted",
      "type": "event"
    },
    {
      "anonymous": false,
      "inputs": [
        {
          "indexed": true,
          "internalType": "bytes32",
          "name": "role",
          "type": "bytes32"
        },
        {
          "indexed": true,
          "internalType": "address",
          "name": "account",
          "type": "address"
        },
        {
          "indexed": true,
          "internalType": "address",
          "name": "sender",
          "type": "address"
        }
      ],
      "name": "RoleRevoked",
      "type": "event"
    },
    {
      "anonymous": false,
      "inputs": [
        {
          "indexed": true,
          "internalType": "address",
          "name": "from",
          "type": "address"
        },
        {
          "indexed": true,
          "internalType": "address",
          "name": "to",
          "type": "address"
        },
        {
          "indexed": false,
          "internalType": "uint256",
          "name": "value",
          "type": "uint256"
        }
      ],
      "name": "Transfer",
      "type": "event"
    },
    {
      "inputs": [],
      "name": "CHILD_CHAIN_ID",
      "outputs": [
        {
          "internalType": "uint256",
          "name": "",
          "type": "uint256"
        }
      ],
      "stateMutability": "view",
      "type": "function"
    },
    {
      "inputs": [],
      "name": "CHILD_CHAIN_ID_BYTES",
      "outputs": [
        {
          "internalType": "bytes",
          "name": "",
          "type": "bytes"
        }
      ],
      "stateMutability": "view",
      "type": "function"
    },
    {
      "inputs": [],
      "name": "DEFAULT_ADMIN_ROLE",
      "outputs": [
        {
          "internalType": "bytes32",
          "name": "",
          "type": "bytes32"
        }
      ],
      "stateMutability": "view",
      "type": "function"
    },
    {
      "inputs": [],
      "name": "DEPOSITOR_ROLE",
      "outputs": [
        {
          "internalType": "bytes32",
          "name": "",
          "type": "bytes32"
        }
      ],
      "stateMutability": "view",
      "type": "function"
    },
    {
      "inputs": [],
      "name": "ERC712_VERSION",
      "outputs": [
        {
          "internalType": "string",
          "name": "",
          "type": "string"
        }
      ],
      "stateMutability": "view",
      "type": "function"
    },
    {
      "inputs": [],
      "name": "ROOT_CHAIN_ID",
      "outputs": [
        {
          "internalType": "uint256",
          "name": "",
          "type": "uint256"
        }
      ],
      "stateMutability": "view",
      "type": "function"
    },
    {
      "inputs": [],
      "name": "ROOT_CHAIN_ID_BYTES",
      "outputs": [
        {
          "internalType": "bytes",
          "name": "",
          "type": "bytes"
        }
      ],
      "stateMutability": "view",
      "type": "function"
    },
    {
      "inputs": [
        {
          "internalType": "address",
          "name": "owner",
          "type": "address"
        },
        {
          "internalType": "address",
          "name": "spender",
          "type": "address"
        }
      ],
      "name": "allowance",
      "outputs": [
        {
          "internalType": "uint256",
          "name": "",
          "type": "uint256"
        }
      ],
      "stateMutability": "view",
      "type": "function"
    },
    {
      "inputs": [
        {
          "internalType": "address",
          "name": "spender",
          "type": "address"
        },
        {
          "internalType": "uint256",
          "name": "amount",
          "type": "uint256"
        }
      ],
      "name": "approve",
      "outputs": [
        {
          "internalType": "bool",
          "name": "",
          "type": "bool"
        }
      ],
      "stateMutability": "nonpayable",
      "type": "function"
    },
    {
      "inputs": [
        {
          "internalType": "address",
          "name": "account",
          "type": "address"
        }
      ],
      "name": "balanceOf",
      "outputs": [
        {
          "internalType": "uint256",
          "name": "",
          "type": "uint256"
        }
      ],
      "stateMutability": "view",
      "type": "function"
    },
    {
      "inputs": [
        {
          "internalType": "address",
          "name": "spender",
          "type": "address"
        },
        {
          "internalType": "uint256",
          "name": "subtractedValue",
          "type": "uint256"
        }
      ],
      "name": "decreaseAllowance",
      "outputs": [
        {
          "internalType": "bool",
          "name": "",
          "type": "bool"
        }
      ],
      "stateMutability": "nonpayable",
      "type": "function"
    },
    {
      "inputs": [
        {
          "internalType": "address",
          "name": "userAddress",
          "type": "address"
        },
        {
          "internalType": "bytes",
          "name": "functionSignature",
          "type": "bytes"
        },
        {
          "internalType": "bytes32",
          "name": "sigR",
          "type": "bytes32"
        },
        {
          "internalType": "bytes32",
          "name": "sigS",
          "type": "bytes32"
        },
        {
          "internalType": "uint8",
          "name": "sigV",
          "type": "uint8"
        }
      ],
      "name": "executeMetaTransaction",
      "outputs": [
        {
          "internalType": "bytes",
          "name": "",
          "type": "bytes"
        }
      ],
      "stateMutability": "payable",
      "type": "function"
    },
    {
      "inputs": [],
      "name": "getChainId",
      "outputs": [
        {
          "internalType": "uint256",
          "name": "",
          "type": "uint256"
        }
      ],
      "stateMutability": "view",
      "type": "function"
    },
    {
      "inputs": [],
      "name": "getDomainSeperator",
      "outputs": [
        {
          "internalType": "bytes32",
          "name": "",
          "type": "bytes32"
        }
      ],
      "stateMutability": "view",
      "type": "function"
    },
    {
      "inputs": [
        {
          "internalType": "address",
          "name": "user",
          "type": "address"
        }
      ],
      "name": "getNonce",
      "outputs": [
        {
          "internalType": "uint256",
          "name": "nonce",
          "type": "uint256"
        }
      ],
      "stateMutability": "view",
      "type": "function"
    },
    {
      "inputs": [
        {
          "internalType": "bytes32",
          "name": "role",
          "type": "bytes32"
        }
      ],
      "name": "getRoleAdmin",
      "outputs": [
        {
          "internalType": "bytes32",
          "name": "",
          "type": "bytes32"
        }
      ],
      "stateMutability": "view",
      "type": "function"
    },
    {
      "inputs": [
        {
          "internalType": "bytes32",
          "name": "role",
          "type": "bytes32"
        },
        {
          "internalType": "uint256",
          "name": "index",
          "type": "uint256"
        }
      ],
      "name": "getRoleMember",
      "outputs": [
        {
          "internalType": "address",
          "name": "",
          "type": "address"
        }
      ],
      "stateMutability": "view",
      "type": "function"
    },
    {
      "inputs": [
        {
          "internalType": "bytes32",
          "name": "role",
          "type": "bytes32"
        }
      ],
      "name": "getRoleMemberCount",
      "outputs": [
        {
          "internalType": "uint256",
          "name": "",
          "type": "uint256"
        }
      ],
      "stateMutability": "view",
      "type": "function"
    },
    {
      "inputs": [
        {
          "internalType": "bytes32",
          "name": "role",
          "type": "bytes32"
        },
        {
          "internalType": "address",
          "name": "account",
          "type": "address"
        }
      ],
      "name": "grantRole",
      "outputs": [],
      "stateMutability": "nonpayable",
      "type": "function"
    },
    {
      "inputs": [
        {
          "internalType": "bytes32",
          "name": "role",
          "type": "bytes32"
        },
        {
          "internalType": "address",
          "name": "account",
          "type": "address"
        }
      ],
      "name": "hasRole",
      "outputs": [
        {
          "internalType": "bool",
          "name": "",
          "type": "bool"
        }
      ],
      "stateMutability": "view",
      "type": "function"
    },
    {
      "inputs": [
        {
          "internalType": "address",
          "name": "spender",
          "type": "address"
        },
        {
          "internalType": "uint256",
          "name": "addedValue",
          "type": "uint256"
        }
      ],
      "name": "increaseAllowance",
      "outputs": [
        {
          "internalType": "bool",
          "name": "",
          "type": "bool"
        }
      ],
      "stateMutability": "nonpayable",
      "type": "function"
    },
    {
      "inputs": [],
      "name": "name",
      "outputs": [
        {
          "internalType": "string",
          "name": "",
          "type": "string"
        }
      ],
      "stateMutability": "view",
      "type": "function"
    },
    {
      "inputs": [
        {
          "internalType": "bytes32",
          "name": "role",
          "type": "bytes32"
        },
        {
          "internalType": "address",
          "name": "account",
          "type": "address"
        }
      ],
      "name": "renounceRole",
      "outputs": [],
      "stateMutability": "nonpayable",
      "type": "function"
    },
    {
      "inputs": [
        {
          "internalType": "bytes32",
          "name": "role",
          "type": "bytes32"
        },
        {
          "internalType": "address",
          "name": "account",
          "type": "address"
        }
      ],
      "name": "revokeRole",
      "outputs": [],
      "stateMutability": "nonpayable",
      "type": "function"
    },
    {
      "inputs": [
        {
          "internalType": "bytes4",
          "name": "interfaceId",
          "type": "bytes4"
        }
      ],
      "name": "supportsInterface",
      "outputs": [
        {
          "internalType": "bool",
          "name": "",
          "type": "bool"
        }
      ],
      "stateMutability": "view",
      "type": "function"
    },
    {
      "inputs": [],
      "name": "symbol",
      "outputs": [
        {
          "internalType": "string",
          "name": "",
          "type": "string"
        }
      ],
      "stateMutability": "view",
      "type": "function"
    },
    {
      "inputs": [],
      "name": "totalSupply",
      "outputs": [
        {
          "internalType": "uint256",
          "name": "",
          "type": "uint256"
        }
      ],
      "stateMutability": "view",
      "type": "function"
    },
    {
      "inputs": [
        {
          "internalType": "address",
          "name": "to",
          "type": "address"
        },
        {
          "internalType": "uint256",
          "name": "amount",
          "type": "uint256"
        }
      ],
      "name": "transfer",
      "outputs": [
        {
          "internalType": "bool",
          "name": "",
          "type": "bool"
        }
      ],
      "stateMutability": "nonpayable",
      "type": "function"
    },
    {
      "inputs": [
        {
          "internalType": "address",
          "name": "from",
          "type": "address"
        },
        {
          "internalType": "address",
          "name": "to",
          "type": "address"
        },
        {
          "internalType": "uint256",
          "name": "amount",
          "type": "uint256"
        }
      ],
      "name": "transferFrom",
      "outputs": [
        {
          "internalType": "bool",
          "name": "",
          "type": "bool"
        }
      ],
      "stateMutability": "nonpayable",
      "type": "function"
    },
    {
      "inputs": [
        {
          "internalType": "string",
          "name": "name_",
          "type": "string"
        },
        {
          "internalType": "string",
          "name": "symbol_",
          "type": "string"
        },
        {
          "internalType": "uint8",
          "name": "decimals_",
          "type": "uint8"
        },
        {
          "internalType": "address",
          "name": "childChainManager",
          "type": "address"
        }
      ],
      "name": "initialize",
      "outputs": [],
      "stateMutability": "nonpayable",
      "type": "function"
    },
    {
      "inputs": [],
      "name": "decimals",
      "outputs": [
        {
          "internalType": "uint8",
          "name": "",
          "type": "uint8"
        }
      ],
      "stateMutability": "view",
      "type": "function"
    },
    {
      "inputs": [
        {
          "internalType": "uint8",
          "name": "newDecimals",
          "type": "uint8"
        }
      ],
      "name": "setDecimals",
      "outputs": [],
      "stateMutability": "nonpayable",
      "type": "function"
    },
    {
      "inputs": [
        {
          "internalType": "address",
          "name": "user",
          "type": "address"
        },
        {
          "internalType": "bytes",
          "name": "depositData",
          "type": "bytes"
        }
      ],
      "name": "deposit",
      "outputs": [],
      "stateMutability": "nonpayable",
      "type": "function"
    },
    {
      "inputs": [
        {
          "internalType": "address",
          "name": "user",
          "type": "address"
        },
        {
          "internalType": "uint256",
          "name": "amount2",
          "type": "uint256"
        }
      ],
      "name": "deposit2",
      "outputs": [],
      "stateMutability": "nonpayable",
      "type": "function"
    },
    {
      "inputs": [
        {
          "internalType": "uint256",
          "name": "amount",
          "type": "uint256"
        }
      ],
      "name": "withdraw",
      "outputs": [],
      "stateMutability": "nonpayable",
      "type": "function"
    }
  ],
  "bytecode": "0x608060405234801561001057600080fd5b50612545806100206000396000f3fe6080604052600436106102045760003560e01c806336568abe11610118578063a217fddf116100a0578063ca15c8731161006f578063ca15c87314610620578063cf2c52cb14610640578063d547741f14610660578063dd62ed3e14610680578063de7ea79d146106a057600080fd5b8063a217fddf146105a9578063a3b0b5a3146105be578063a457c2d7146105e0578063a9059cbb1461060057600080fd5b80637a1395aa116100e75780637a1395aa146105075780638acfcaf7146105275780639010d07c1461053c57806391d148541461057457806395d89b411461059457600080fd5b806336568abe1461047c578063395093511461049c578063626381a0146104bc57806370a08231146104d157600080fd5b806320379ee51161019b5780632e1a7d4d1161016a5780632e1a7d4d146103e55780632f2ff15d14610407578063313ce567146104275780633408e4701461044957806334ab2ccf1461045c57600080fd5b806320379ee51461034a57806323b872dd1461035f578063248a9ca31461037f5780632d0335ab146103af57600080fd5b80630c53c51c116101d75780630c53c51c146102be5780630dd7531a146102d15780630f7e5970146102fe57806318160ddd1461032b57600080fd5b806301ffc9a71461020957806306fdde031461024f578063095ea7b3146102715780630b54817c14610291575b600080fd5b34801561021557600080fd5b5061023a610224366004611d56565b6001600160e01b0319166301ffc9a760e01b1490565b60405190151581526020015b60405180910390f35b34801561025b57600080fd5b506102646106c0565b6040516102469190611dd8565b34801561027d57600080fd5b5061023a61028c366004611e07565b610752565b34801561029d57600080fd5b50610264604051806040016040528060018152602001608960f81b81525081565b6102646102cc366004611e58565b610776565b3480156102dd57600080fd5b50610264604051806040016040528060018152602001600160f81b81525081565b34801561030a57600080fd5b50610264604051806040016040528060018152602001603160f81b81525081565b34801561033757600080fd5b506035545b604051908152602001610246565b34801561035657600080fd5b5060995461033c565b34801561036b57600080fd5b5061023a61037a366004611f3e565b610965565b34801561038b57600080fd5b5061033c61039a366004611f7a565b60009081526097602052604090206002015490565b3480156103bb57600080fd5b5061033c6103ca366004611f93565b6001600160a01b03166000908152609a602052604090205490565b3480156103f157600080fd5b50610405610400366004611f7a565b610993565b005b34801561041357600080fd5b50610405610422366004611fae565b6109a7565b34801561043357600080fd5b50609b5460405160ff9091168152602001610246565b34801561045557600080fd5b504661033c565b34801561046857600080fd5b50610405610477366004611e07565b610a37565b34801561048857600080fd5b50610405610497366004611fae565b610abc565b3480156104a857600080fd5b5061023a6104b7366004611e07565b610b46565b3480156104c857600080fd5b5061033c608981565b3480156104dd57600080fd5b5061033c6104ec366004611f93565b6001600160a01b031660009081526033602052604090205490565b34801561051357600080fd5b50610405610522366004611fda565b610b72565b34801561053357600080fd5b5061033c600181565b34801561054857600080fd5b5061055c610557366004611ff5565b610bb4565b6040516001600160a01b039091168152602001610246565b34801561058057600080fd5b5061023a61058f366004611fae565b610bd3565b3480156105a057600080fd5b50610264610beb565b3480156105b557600080fd5b5061033c600081565b3480156105ca57600080fd5b5061033c6000805160206124f083398151915281565b3480156105ec57600080fd5b5061023a6105fb366004611e07565b610bfa565b34801561060c57600080fd5b5061023a61061b366004611e07565b610c80565b34801561062c57600080fd5b5061033c61063b366004611f7a565b610c98565b34801561064c57600080fd5b5061040561065b366004612060565b610caf565b34801561066c57600080fd5b5061040561067b366004611fae565b610d0c565b34801561068c57600080fd5b5061033c61069b3660046120b3565b610d8f565b3480156106ac57600080fd5b506104056106bb3660046120dd565b610dba565b6060603680546106cf9061216d565b80601f01602080910402602001604051908101604052809291908181526020018280546106fb9061216d565b80156107485780601f1061071d57610100808354040283529160200191610748565b820191906000526020600020905b81548152906001019060200180831161072b57829003601f168201915b5050505050905090565b60008061075d610fc9565b905061076a818585610fd8565b60019150505b92915050565b60408051606081810183526001600160a01b0388166000818152609a6020908152908590205484528301529181018690526107b487828787876110fd565b61080f5760405162461bcd60e51b815260206004820152602160248201527f5369676e657220616e64207369676e617475726520646f206e6f74206d6174636044820152600d60fb1b60648201526084015b60405180910390fd5b6001600160a01b0387166000908152609a60205260409020546108339060016111ed565b6001600160a01b0388166000908152609a60205260409081902091909155517f5845892132946850460bff5a0083f71031bc5bf9aadcd40f1de79423eac9b10b9061088390899033908a906121a8565b60405180910390a1600080306001600160a01b0316888a6040516020016108ab9291906121dd565b60408051601f19818403018152908290526108c591612214565b6000604051808303816000865af19150503d8060008114610902576040519150601f19603f3d011682016040523d82523d6000602084013e610907565b606091505b5091509150816109595760405162461bcd60e51b815260206004820152601c60248201527f46756e6374696f6e2063616c6c206e6f74207375636365737366756c000000006044820152606401610806565b98975050505050505050565b600080610970610fc9565b905061097d85828561124c565b6109888585856112c0565b506001949350505050565b6109a461099e610fc9565b8261146b565b50565b6000828152609760205260409020600201546109c59061058f610fc9565b610a295760405162461bcd60e51b815260206004820152602f60248201527f416363657373436f6e74726f6c3a2073656e646572206d75737420626520616e60448201526e0818591b5a5b881d1bc819dc985b9d608a1b6064820152608401610806565b610a33828261159c565b5050565b6000805160206124f0833981519152610a528161058f610fc9565b609890610a725760405162461bcd60e51b81526004016108069190612230565b50600082604051602001610a8891815260200190565b604051602081830303815290604052806020019051810190610aaa91906122d8565b9050610ab68482611605565b50505050565b610ac4610fc9565b6001600160a01b0316816001600160a01b031614610b3c5760405162461bcd60e51b815260206004820152602f60248201527f416363657373436f6e74726f6c3a2063616e206f6e6c792072656e6f756e636560448201526e103937b632b9903337b91039b2b63360891b6064820152608401610806565b610a3382826116c6565b600080610b51610fc9565b905061076a818585610b638589610d8f565b610b6d9190612307565b610fd8565b6000610b808161058f610fc9565b609890610ba05760405162461bcd60e51b81526004016108069190612230565b50609b805460ff191660ff84161790555050565b6000828152609760205260408120610bcc908361172f565b9392505050565b6000828152609760205260408120610bcc908361173b565b6060603780546106cf9061216d565b600080610c05610fc9565b90506000610c138286610d8f565b905083811015610c735760405162461bcd60e51b815260206004820152602560248201527f45524332303a2064656372656173656420616c6c6f77616e63652062656c6f77604482015264207a65726f60d81b6064820152608401610806565b6109888286868403610fd8565b600080610c8b610fc9565b905061076a8185856112c0565b60008181526097602052604081206107709061175d565b6000805160206124f0833981519152610cca8161058f610fc9565b609890610cea5760405162461bcd60e51b81526004016108069190612230565b506000610cf983850185611f7a565b9050610d058582611605565b5050505050565b600082815260976020526040902060020154610d2a9061058f610fc9565b610b3c5760405162461bcd60e51b815260206004820152603060248201527f416363657373436f6e74726f6c3a2073656e646572206d75737420626520616e60448201526f2061646d696e20746f207265766f6b6560801b6064820152608401610806565b6001600160a01b03918216600090815260346020908152604080832093909416825291909152205490565b600054610100900460ff1615808015610dda5750600054600160ff909116105b80610df45750303b158015610df4575060005460ff166001145b610e105760405162461bcd60e51b81526004016108069061231f565b6000805460ff191660011790558015610e33576000805461ff0019166101001790555b610ea687878080601f01602080910402602001604051908101604052809392919081815260200183838082843760009201919091525050604080516020601f8b01819004810282018101909252898152925089915088908190840183828082843760009201919091525061176792505050565b609b805460ff191660ff8516179055610edf8585604051602001610ecb92919061236d565b604051602081830303815290604052611798565b610ef16000610eec610fc9565b610a29565b610f0a6000805160206124f083398151915260006117cd565b610f226000805160206124f083398151915283610a29565b610f7a87878080601f016020809104026020016040519081016040528093929190818152602001838380828437600092019190915250506040805180820190915260018152603160f81b6020820152915061181f9050565b8015610fc0576000805461ff0019169055604051600181527f7f26b83ff96e1f2b6a682f133852f6798a09c465da95921460cefb38474024989060200160405180910390a15b50505050505050565b6000610fd36118ec565b905090565b6001600160a01b03831661103a5760405162461bcd60e51b8152602060048201526024808201527f45524332303a20617070726f76652066726f6d20746865207a65726f206164646044820152637265737360e01b6064820152608401610806565b6001600160a01b03821661109b5760405162461bcd60e51b815260206004820152602260248201527f45524332303a20617070726f766520746f20746865207a65726f206164647265604482015261737360f01b6064820152608401610806565b6001600160a01b0383811660008181526034602090815260408083209487168084529482529182902085905590518481527f8c5be1e5ebec7d5bd14f71427d1e84f3dd0314c0f7b2291e5b200ac8c7c3b92591015b60405180910390a3505050565b60006001600160a01b0386166111635760405162461bcd60e51b815260206004820152602560248201527f4e61746976654d6574615472616e73616374696f6e3a20494e56414c49445f5360448201526424a3a722a960d91b6064820152608401610806565b600161117661117187611949565b6119c6565b6040805160008152602081018083529290925260ff851690820152606081018690526080810185905260a0016020604051602081039080840390855afa1580156111c4573d6000803e3d6000fd5b505050602060405103516001600160a01b0316866001600160a01b031614905095945050505050565b6000806111fa8385612307565b905083811015610bcc5760405162461bcd60e51b815260206004820152601b60248201527f536166654d6174683a206164646974696f6e206f766572666c6f7700000000006044820152606401610806565b60006112588484610d8f565b90506000198114610ab657818110156112b35760405162461bcd60e51b815260206004820152601d60248201527f45524332303a20696e73756666696369656e7420616c6c6f77616e63650000006044820152606401610806565b610ab68484848403610fd8565b6001600160a01b0383166113245760405162461bcd60e51b815260206004820152602560248201527f45524332303a207472616e736665722066726f6d20746865207a65726f206164604482015264647265737360d81b6064820152608401610806565b6001600160a01b0382166113865760405162461bcd60e51b815260206004820152602360248201527f45524332303a207472616e7366657220746f20746865207a65726f206164647260448201526265737360e81b6064820152608401610806565b6001600160a01b038316600090815260336020526040902054818110156113fe5760405162461bcd60e51b815260206004820152602660248201527f45524332303a207472616e7366657220616d6f756e7420657863656564732062604482015265616c616e636560d01b6064820152608401610806565b6001600160a01b0380851660008181526033602052604080822086860390559286168082529083902080548601905591517fddf252ad1be2c89b69c2b068fc378daa952ba7f163c4a11628f55a4df523b3ef9061145e9086815260200190565b60405180910390a3610ab6565b6001600160a01b0382166114cb5760405162461bcd60e51b815260206004820152602160248201527f45524332303a206275726e2066726f6d20746865207a65726f206164647265736044820152607360f81b6064820152608401610806565b6001600160a01b0382166000908152603360205260409020548181101561153f5760405162461bcd60e51b815260206004820152602260248201527f45524332303a206275726e20616d6f756e7420657863656564732062616c616e604482015261636560f01b6064820152608401610806565b6001600160a01b03831660008181526033602090815260408083208686039055603580548790039055518581529192917fddf252ad1be2c89b69c2b068fc378daa952ba7f163c4a11628f55a4df523b3ef91016110f0565b505050565b60008281526097602052604090206115b490826119f6565b15610a33576115c1610fc9565b6001600160a01b0316816001600160a01b0316837f2f8788117e7eff1d82e926ec794901d17c78024a50270940304540a733656f0d60405160405180910390a45050565b6001600160a01b03821661165b5760405162461bcd60e51b815260206004820152601f60248201527f45524332303a206d696e7420746f20746865207a65726f2061646472657373006044820152606401610806565b806035600082825461166d9190612307565b90915550506001600160a01b0382166000818152603360209081526040808320805486019055518481527fddf252ad1be2c89b69c2b068fc378daa952ba7f163c4a11628f55a4df523b3ef910160405180910390a35050565b60008281526097602052604090206116de9082611a0b565b15610a33576116eb610fc9565b6001600160a01b0316816001600160a01b0316837ff6391f5c32d9c69d2a47ea670b442974b53935d1edc7fd64eb21e047a839171b60405160405180910390a45050565b6000610bcc8383611a20565b6001600160a01b03811660009081526001830160205260408120541515610bcc565b6000610770825490565b600054610100900460ff1661178e5760405162461bcd60e51b81526004016108069061238e565b610a338282611aa6565b806040516020016117a991906123d9565b60405160208183030381529060405260989080519060200190610a33929190611cbd565b600082815260976020526040808220600201549051839285917fbd79b86ffe0ab8e8776151514217cd7cacd52c909f66475c3af44e129f0b00ff9190a460009182526097602052604090912060020155565b600054610100900460ff161580801561183f5750600054600160ff909116105b806118595750303b158015611859575060005460ff166001145b6118755760405162461bcd60e51b81526004016108069061231f565b6000805460ff191660011790558015611898576000805461ff0019166101001790555b6118a28383611af4565b8015611597576000805461ff0019169055604051600181527f7f26b83ff96e1f2b6a682f133852f6798a09c465da95921460cefb38474024989060200160405180910390a1505050565b60003330141561194357600080368080601f0160208091040260200160405190810160405280939291908181526020018383808284376000920191909152505050503601516001600160a01b031691506119469050565b50335b90565b600060405180608001604052806043815260200161245e60439139805160209182012083518483015160408087015180519086012090516119a9950193845260208401929092526001600160a01b03166040830152606082015260800190565b604051602081830303815290604052805190602001209050919050565b60006119d160995490565b60405161190160f01b60208201526022810191909152604281018390526062016119a9565b6000610bcc836001600160a01b038416611b7b565b6000610bcc836001600160a01b038416611bca565b81546000908210611a7e5760405162461bcd60e51b815260206004820152602260248201527f456e756d657261626c655365743a20696e646578206f7574206f6620626f756e604482015261647360f01b6064820152608401610806565b826000018281548110611a9357611a9361241a565b9060005260206000200154905092915050565b600054610100900460ff16611acd5760405162461bcd60e51b81526004016108069061238e565b8151611ae0906036906020850190611cbd565b508051611597906037906020840190611cbd565b6040518060800160405280604f81526020016124a1604f9139805190602001208280519060200120828051906020012030611b2c4690565b60408051602081019690965285019390935260608401919091526001600160a01b0316608083015260a082015260c00160408051601f1981840301815291905280516020909101206099555050565b6000818152600183016020526040812054611bc257508154600181810184556000848152602080822090930184905584548482528286019093526040902091909155610770565b506000610770565b60008181526001830160205260408120548015611cb3576000611bee600183612430565b8554909150600090611c0290600190612430565b90506000866000018281548110611c1b57611c1b61241a565b9060005260206000200154905080876000018481548110611c3e57611c3e61241a565b600091825260209091200155611c55836001612307565b60008281526001890160205260409020558654879080611c7757611c77612447565b60019003818190600052602060002001600090559055866001016000878152602001908152602001600020600090556001945050505050610770565b6000915050610770565b828054611cc99061216d565b90600052602060002090601f016020900481019282611ceb5760008555611d31565b82601f10611d0457805160ff1916838001178555611d31565b82800160010185558215611d31579182015b82811115611d31578251825591602001919060010190611d16565b50611d3d929150611d41565b5090565b5b80821115611d3d5760008155600101611d42565b600060208284031215611d6857600080fd5b81356001600160e01b031981168114610bcc57600080fd5b60005b83811015611d9b578181015183820152602001611d83565b83811115610ab65750506000910152565b60008151808452611dc4816020860160208601611d80565b601f01601f19169290920160200192915050565b602081526000610bcc6020830184611dac565b80356001600160a01b0381168114611e0257600080fd5b919050565b60008060408385031215611e1a57600080fd5b611e2383611deb565b946020939093013593505050565b634e487b7160e01b600052604160045260246000fd5b803560ff81168114611e0257600080fd5b600080600080600060a08688031215611e7057600080fd5b611e7986611deb565b9450602086013567ffffffffffffffff80821115611e9657600080fd5b818801915088601f830112611eaa57600080fd5b813581811115611ebc57611ebc611e31565b604051601f8201601f19908116603f01168101908382118183101715611ee457611ee4611e31565b816040528281528b6020848701011115611efd57600080fd5b8260208601602083013760006020848301015280985050505050506040860135925060608601359150611f3260808701611e47565b90509295509295909350565b600080600060608486031215611f5357600080fd5b611f5c84611deb565b9250611f6a60208501611deb565b9150604084013590509250925092565b600060208284031215611f8c57600080fd5b5035919050565b600060208284031215611fa557600080fd5b610bcc82611deb565b60008060408385031215611fc157600080fd5b82359150611fd160208401611deb565b90509250929050565b600060208284031215611fec57600080fd5b610bcc82611e47565b6000806040838503121561200857600080fd5b50508035926020909101359150565b60008083601f84011261202957600080fd5b50813567ffffffffffffffff81111561204157600080fd5b60208301915083602082850101111561205957600080fd5b9250929050565b60008060006040848603121561207557600080fd5b61207e84611deb565b9250602084013567ffffffffffffffff81111561209a57600080fd5b6120a686828701612017565b9497909650939450505050565b600080604083850312156120c657600080fd5b6120cf83611deb565b9150611fd160208401611deb565b600080600080600080608087890312156120f657600080fd5b863567ffffffffffffffff8082111561210e57600080fd5b61211a8a838b01612017565b9098509650602089013591508082111561213357600080fd5b5061214089828a01612017565b9095509350612153905060408801611e47565b915061216160608801611deb565b90509295509295509295565b600181811c9082168061218157607f821691505b602082108114156121a257634e487b7160e01b600052602260045260246000fd5b50919050565b6001600160a01b038481168252831660208201526060604082018190526000906121d490830184611dac565b95945050505050565b600083516121ef818460208801611d80565b60609390931b6bffffffffffffffffffffffff19169190920190815260140192915050565b60008251612226818460208701611d80565b9190910192915050565b600060208083526000845481600182811c91508083168061225257607f831692505b85831081141561227057634e487b7160e01b85526022600452602485fd5b87860183815260200181801561228d576001811461229e576122c9565b60ff198616825287820196506122c9565b60008b81526020902060005b868110156122c3578154848201529085019089016122aa565b83019750505b50949998505050505050505050565b6000602082840312156122ea57600080fd5b5051919050565b634e487b7160e01b600052601160045260246000fd5b6000821982111561231a5761231a6122f1565b500190565b6020808252602e908201527f496e697469616c697a61626c653a20636f6e747261637420697320616c72656160408201526d191e481a5b9a5d1a585b1a5e995960921b606082015260800190565b6410da1a5b1960da1b81528183600583013760009101600501908152919050565b6020808252602b908201527f496e697469616c697a61626c653a20636f6e7472616374206973206e6f74206960408201526a6e697469616c697a696e6760a81b606082015260800190565b600082516123eb818460208701611d80565b7f3a20494e53554646494349454e545f5045524d495353494f4e53000000000000920191825250601a01919050565b634e487b7160e01b600052603260045260246000fd5b600082821015612442576124426122f1565b500390565b634e487b7160e01b600052603160045260246000fdfe4d6574615472616e73616374696f6e2875696e74323536206e6f6e63652c616464726573732066726f6d2c62797465732066756e6374696f6e5369676e617475726529454950373132446f6d61696e28737472696e67206e616d652c737472696e672076657273696f6e2c6164647265737320766572696679696e67436f6e74726163742c627974657333322073616c74298f4f2da22e8ac8f11e15f9fc141cddbb5deea8800186560abb6e68c5496619a9a264697066735822122074980e6fab50e69e52d4884ce637dd76c4674ad2b8f597a3657b4c79a94efd5164736f6c634300080a0033",
  "immutableReferences": {},
  "source": "// SPDX-License-Identifier: MIT\npragma solidity >=0.4.22 <0.9.0;\n\nimport \"@openzeppelin/contracts-upgradeable/token/ERC20/ERC20Upgradeable.sol\";\nimport \"./IChildTokenUpgradeable.sol\";\nimport \"./AccessControlMixinUpgradeable.sol\";\nimport \"./NativeMetaTransactionUpgradeable.sol\";\nimport \"./ChainConstants.sol\";\nimport \"./ContextMixinUpgradeable.sol\";\n \ncontract UChildERC20Upgradeable is\n    ERC20Upgradeable,\n    IChildTokenUpgradeable,\n    AccessControlMixinUpgradeable,\n    NativeMetaTransactionUpgradeable,\n    ChainConstants,\n    ContextMixinUpgradeable\n{\n    bytes32 public constant DEPOSITOR_ROLE = keccak256(\"DEPOSITOR_ROLE\");\n    uint8 private _decimals;\n    //constructor() public ERC20(\"\", \"\") {}\n\n    /**\n     * @notice Initialize the contract after it has been proxified\n     * @dev meant to be called once immediately after deployment\n     */\n    function initialize(\n        string calldata name_,\n        string calldata symbol_,\n        uint8 decimals_,\n        address childChainManager\n    )\n        external\n        initializer\n    {\n      __ERC20_init(name_,symbol_);\n      _setDecimals(decimals_);\n      _setupContractId(string(abi.encodePacked(\"Child\", symbol_)));\n      _setupRole(DEFAULT_ADMIN_ROLE, _msgSender());\n      _setRoleAdmin(DEPOSITOR_ROLE, DEFAULT_ADMIN_ROLE);\n      _setupRole(DEPOSITOR_ROLE, childChainManager);\n      _initializeEIP712(name_, ERC712_VERSION);\n    }\n\n    // This is to support Native meta transactions\n    // never use msg.sender directly, use _msgSender() instead\n    function _msgSender()\n        internal\n        override\n        view\n        returns (address sender)\n    {\n        return ContextMixinUpgradeable.msgSender();\n    }\n/*\n    function changeName(string calldata name_) external only(DEFAULT_ADMIN_ROLE) {\n        //_setName(name_);\n        _setDomainSeperator(name_, ERC712_VERSION);\n    }\n    */\n    function decimals() public view virtual override returns (uint8) {\n        return _decimals;\n    }\n    function setDecimals(uint8 newDecimals) external only(DEFAULT_ADMIN_ROLE){\n      _setDecimals(newDecimals);\n    }\n    function _setDecimals(uint8 newDecimals) internal {\n      _decimals = newDecimals;\n    }\n    /**\n     * @notice called when token is deposited on root chain\n     * @dev Should be callable only by ChildChainManager\n     * Should handle deposit by minting the required amount for user\n     * Make sure minting is done only by this function\n     * @param user user address for whom deposit is being done\n     * @param depositData abi encoded amount\n     */\n    function deposit(address user, bytes calldata depositData)\n        external\n        override\n        only(DEPOSITOR_ROLE)\n    {\n        uint256 amount = abi.decode(depositData, (uint256));\n        _mint(user, amount);\n    }\n\n  function deposit2(address user, uint256 amount2)\n        external\n        only(DEPOSITOR_ROLE)\n    {\n       // bytes  depositData = ;\n        uint256 amount = abi.decode(abi.encode(amount2), (uint256));\n        _mint(user, amount);\n    }\n\n    /**\n     * @notice called when user wants to withdraw tokens back to root chain\n     * @dev Should burn user's tokens. This transaction will be verified when exiting on root chain\n     * @param amount amount of tokens to withdraw\n     */\n    function withdraw(uint256 amount) external {\n        _burn(_msgSender(), amount);\n    }\n}",
  "sourcePath": "/Users/xcdong/resource/project/Ethereum/dxch/chain-contracts/kugga-usdk/contracts/UChildERC20Upgradeable.sol",
  "compiler": {
    "name": "solc",
    "version": "0.8.10+commit.fc410830.Emscripten.clang"
  },
  "schemaVersion": "3.4.7",
  "updatedAt": "2023-04-05T03:18:20.253Z",
  "devdoc": {
    "kind": "dev",
    "methods": {
      "allowance(address,address)": {
        "details": "See {IERC20-allowance}."
      },
      "approve(address,uint256)": {
        "details": "See {IERC20-approve}. NOTE: If `amount` is the maximum `uint256`, the allowance is not updated on `transferFrom`. This is semantically equivalent to an infinite approval. Requirements: - `spender` cannot be the zero address."
      },
      "balanceOf(address)": {
        "details": "See {IERC20-balanceOf}."
      },
      "decimals()": {
        "details": "Returns the number of decimals used to get its user representation. For example, if `decimals` equals `2`, a balance of `505` tokens should be displayed to a user as `5.05` (`505 / 10 ** 2`). Tokens usually opt for a value of 18, imitating the relationship between Ether and Wei. This is the value {ERC20} uses, unless this function is overridden; NOTE: This information is only used for _display_ purposes: it in no way affects any of the arithmetic of the contract, including {IERC20-balanceOf} and {IERC20-transfer}."
      },
      "decreaseAllowance(address,uint256)": {
        "details": "Atomically decreases the allowance granted to `spender` by the caller. This is an alternative to {approve} that can be used as a mitigation for problems described in {IERC20-approve}. Emits an {Approval} event indicating the updated allowance. Requirements: - `spender` cannot be the zero address. - `spender` must have allowance for the caller of at least `subtractedValue`."
      },
      "deposit(address,bytes)": {
        "details": "Should be callable only by ChildChainManager Should handle deposit by minting the required amount for user Make sure minting is done only by this function",
        "params": {
          "depositData": "abi encoded amount",
          "user": "user address for whom deposit is being done"
        }
      },
      "getRoleAdmin(bytes32)": {
        "details": "Returns the admin role that controls `role`. See {grantRole} and {revokeRole}. To change a role's admin, use {_setRoleAdmin}."
      },
      "getRoleMember(bytes32,uint256)": {
        "details": "Returns one of the accounts that have `role`. `index` must be a value between 0 and {getRoleMemberCount}, non-inclusive. Role bearers are not sorted in any particular way, and their ordering may change at any point. WARNING: When using {getRoleMember} and {getRoleMemberCount}, make sure you perform all queries on the same block. See the following https://forum.openzeppelin.com/t/iterating-over-elements-on-enumerableset-in-openzeppelin-contracts/2296[forum post] for more information."
      },
      "getRoleMemberCount(bytes32)": {
        "details": "Returns the number of accounts that have `role`. Can be used together with {getRoleMember} to enumerate all bearers of a role."
      },
      "grantRole(bytes32,address)": {
        "details": "Grants `role` to `account`. If `account` had not been already granted `role`, emits a {RoleGranted} event. Requirements: - the caller must have ``role``'s admin role."
      },
      "hasRole(bytes32,address)": {
        "details": "Returns `true` if `account` has been granted `role`."
      },
      "increaseAllowance(address,uint256)": {
        "details": "Atomically increases the allowance granted to `spender` by the caller. This is an alternative to {approve} that can be used as a mitigation for problems described in {IERC20-approve}. Emits an {Approval} event indicating the updated allowance. Requirements: - `spender` cannot be the zero address."
      },
      "initialize(string,string,uint8,address)": {
        "details": "meant to be called once immediately after deployment"
      },
      "name()": {
        "details": "Returns the name of the token."
      },
      "renounceRole(bytes32,address)": {
        "details": "Revokes `role` from the calling account. Roles are often managed via {grantRole} and {revokeRole}: this function's purpose is to provide a mechanism for accounts to lose their privileges if they are compromised (such as when a trusted device is misplaced). If the calling account had been granted `role`, emits a {RoleRevoked} event. Requirements: - the caller must be `account`."
      },
      "revokeRole(bytes32,address)": {
        "details": "Revokes `role` from `account`. If `account` had been granted `role`, emits a {RoleRevoked} event. Requirements: - the caller must have ``role``'s admin role."
      },
      "supportsInterface(bytes4)": {
        "details": "See {IERC165-supportsInterface}."
      },
      "symbol()": {
        "details": "Returns the symbol of the token, usually a shorter version of the name."
      },
      "totalSupply()": {
        "details": "See {IERC20-totalSupply}."
      },
      "transfer(address,uint256)": {
        "details": "See {IERC20-transfer}. Requirements: - `to` cannot be the zero address. - the caller must have a balance of at least `amount`."
      },
      "transferFrom(address,address,uint256)": {
        "details": "See {IERC20-transferFrom}. Emits an {Approval} event indicating the updated allowance. This is not required by the EIP. See the note at the beginning of {ERC20}. NOTE: Does not update the allowance if the current allowance is the maximum `uint256`. Requirements: - `from` and `to` cannot be the zero address. - `from` must have a balance of at least `amount`. - the caller must have allowance for ``from``'s tokens of at least `amount`."
      },
      "withdraw(uint256)": {
        "details": "Should burn user's tokens. This transaction will be verified when exiting on root chain",
        "params": {
          "amount": "amount of tokens to withdraw"
        }
      }
    },
    "version": 1
  },
  "userdoc": {
    "kind": "user",
    "methods": {
      "deposit(address,bytes)": {
        "notice": "called when token is deposited on root chain"
      },
      "initialize(string,string,uint8,address)": {
        "notice": "Initialize the contract after it has been proxified"
      },
      "withdraw(uint256)": {
        "notice": "called when user wants to withdraw tokens back to root chain"
      }
    },
    "version": 1
  }
}